{
  "contractName": "Auctions",
  "abi": [
    {
      "inputs": [],
      "payable": false,
      "stateMutability": "nonpayable",
      "type": "constructor"
    },
    {
      "constant": true,
      "inputs": [
        {
          "internalType": "address",
          "name": "",
          "type": "address"
        }
      ],
      "name": "advertisers",
      "outputs": [
        {
          "internalType": "string",
          "name": "advertiser_name",
          "type": "string"
        },
        {
          "internalType": "string",
          "name": "city",
          "type": "string"
        }
      ],
      "payable": false,
      "stateMutability": "view",
      "type": "function"
    },
    {
      "constant": true,
      "inputs": [
        {
          "internalType": "uint256",
          "name": "",
          "type": "uint256"
        }
      ],
      "name": "auctions",
      "outputs": [
        {
          "internalType": "string",
          "name": "auction_name",
          "type": "string"
        },
        {
          "internalType": "address",
          "name": "advertiser_addr",
          "type": "address"
        },
        {
          "internalType": "uint256",
          "name": "start_date",
          "type": "uint256"
        },
        {
          "internalType": "uint256",
          "name": "end_date",
          "type": "uint256"
        },
        {
          "internalType": "string",
          "name": "status",
          "type": "string"
        },
        {
          "internalType": "int256",
          "name": "id_winner",
          "type": "int256"
        },
        {
          "internalType": "uint256",
          "name": "offersCounter",
          "type": "uint256"
        }
      ],
      "payable": false,
      "stateMutability": "view",
      "type": "function"
    },
    {
      "constant": true,
      "inputs": [
        {
          "internalType": "address",
          "name": "",
          "type": "address"
        }
      ],
      "name": "offerents",
      "outputs": [
        {
          "internalType": "string",
          "name": "offerent_name",
          "type": "string"
        },
        {
          "internalType": "uint256",
          "name": "NIP",
          "type": "uint256"
        }
      ],
      "payable": false,
      "stateMutability": "view",
      "type": "function"
    },
    {
      "constant": false,
      "inputs": [
        {
          "internalType": "string",
          "name": "name",
          "type": "string"
        },
        {
          "internalType": "string",
          "name": "city",
          "type": "string"
        }
      ],
      "name": "registerAdvertiser",
      "outputs": [],
      "payable": false,
      "stateMutability": "nonpayable",
      "type": "function"
    },
    {
      "constant": false,
      "inputs": [
        {
          "internalType": "string",
          "name": "name",
          "type": "string"
        },
        {
          "internalType": "uint256",
          "name": "NIP",
          "type": "uint256"
        }
      ],
      "name": "registerOfferent",
      "outputs": [],
      "payable": false,
      "stateMutability": "nonpayable",
      "type": "function"
    },
    {
      "constant": false,
      "inputs": [
        {
          "internalType": "uint256",
          "name": "id",
          "type": "uint256"
        },
        {
          "internalType": "string",
          "name": "name",
          "type": "string"
        },
        {
          "internalType": "uint256",
          "name": "startDate",
          "type": "uint256"
        },
        {
          "internalType": "uint256",
          "name": "endDate",
          "type": "uint256"
        }
      ],
      "name": "createAuction",
      "outputs": [],
      "payable": false,
      "stateMutability": "nonpayable",
      "type": "function"
    },
    {
      "constant": false,
      "inputs": [
        {
          "internalType": "uint256",
          "name": "auction_id",
          "type": "uint256"
        },
        {
          "internalType": "string",
          "name": "auction_name",
          "type": "string"
        },
        {
          "internalType": "string",
          "name": "status",
          "type": "string"
        }
      ],
      "name": "setAuctionStatus",
      "outputs": [],
      "payable": false,
      "stateMutability": "nonpayable",
      "type": "function"
    },
    {
      "constant": false,
      "inputs": [
        {
          "internalType": "uint256",
          "name": "auction_id",
          "type": "uint256"
        },
        {
          "internalType": "string",
          "name": "auction_name",
          "type": "string"
        },
        {
          "internalType": "address",
          "name": "winnerAddr",
          "type": "address"
        }
      ],
      "name": "setAuctionWinner",
      "outputs": [],
      "payable": false,
      "stateMutability": "nonpayable",
      "type": "function"
    },
    {
      "constant": false,
      "inputs": [
        {
          "internalType": "uint256",
          "name": "auction_id",
          "type": "uint256"
        },
        {
          "internalType": "string",
          "name": "auction_name",
          "type": "string"
        },
        {
          "internalType": "uint256",
          "name": "price",
          "type": "uint256"
        }
      ],
      "name": "makeOffer",
      "outputs": [],
      "payable": false,
      "stateMutability": "nonpayable",
      "type": "function"
    },
    {
      "constant": true,
      "inputs": [
        {
          "internalType": "uint256",
          "name": "auction_id",
          "type": "uint256"
        },
        {
          "internalType": "string",
          "name": "auction_name",
          "type": "string"
        }
      ],
      "name": "getAuctionStatus",
      "outputs": [
        {
          "internalType": "string",
          "name": "",
          "type": "string"
        }
      ],
      "payable": false,
      "stateMutability": "view",
      "type": "function"
    },
    {
      "constant": true,
      "inputs": [
        {
          "internalType": "uint256",
          "name": "auction_id",
          "type": "uint256"
        },
        {
          "internalType": "string",
          "name": "auction_name",
          "type": "string"
        }
      ],
      "name": "getAuctionWinner",
      "outputs": [
        {
          "internalType": "address",
          "name": "",
          "type": "address"
        }
      ],
      "payable": false,
      "stateMutability": "view",
      "type": "function"
    }
  ],
  "bytecode": "0x608060405234801561001057600080fd5b506125fc806100206000396000f3fe608060405234801561001057600080fd5b50600436106100a95760003560e01c806361c6d7f11161007157806361c6d7f1146101915780638edb3390146101ad5780639d50345e146101c9578063d3257cd5146101e5578063ed88cb0d14610201578063fe5e3d131461021d576100a9565b80630583063a146100ae57806323b8145a146100de578063571a26a01461010e5780635a5191a5146101445780635b80100714610160575b600080fd5b6100c860048036036100c39190810190611b0c565b61024e565b6040516100d591906121d1565b60405180910390f35b6100f860048036036100f39190810190611b0c565b61040f565b60405161010591906121ec565b60405180910390f35b61012860048036036101239190810190611ae3565b6105c5565b60405161013b979695949392919061220e565b60405180910390f35b61015e60048036036101599190810190611c46565b610757565b005b61017a600480360361017591908101906119fa565b6109e1565b60405161018892919061228b565b60405180910390f35b6101ab60048036036101a69190810190611a8f565b610b35565b005b6101c760048036036101c29190810190611cad565b610cf9565b005b6101e360048036036101de9190810190611a23565b610f27565b005b6101ff60048036036101fa9190810190611b60565b6110e9565b005b61021b60048036036102169190810190611bc7565b611490565b005b610237600480360361023291908101906119fa565b6116fb565b6040516102459291906122c2565b60405180910390f35b6000610308600260008581526020019081526020016000206000018054600181600116156101000203166002900480601f0160208091040260200160405190810160405280929190818152602001828054600181600116156101000203166002900480156102fd5780601f106102d2576101008083540402835291602001916102fd565b820191906000526020600020905b8154815290600101906020018083116102e057829003601f168201915b5050505050836117b7565b156103ce576000600260008581526020019081526020016000206005015412610393576002600084815260200190815260200160002060070160006002600086815260200190815260200160002060050154815260200190815260200160002060000160009054906101000a900473ffffffffffffffffffffffffffffffffffffffff169050610409565b6040517f08c379a00000000000000000000000000000000000000000000000000000000081526004016103c5906123d2565b60405180910390fd5b6040517f08c379a000000000000000000000000000000000000000000000000000000000815260040161040090612332565b60405180910390fd5b92915050565b60606104c9600260008581526020019081526020016000206000018054600181600116156101000203166002900480601f0160208091040260200160405190810160405280929190818152602001828054600181600116156101000203166002900480156104be5780601f10610493576101008083540402835291602001916104be565b820191906000526020600020905b8154815290600101906020018083116104a157829003601f168201915b5050505050836117b7565b1561058457600260008481526020019081526020016000206004018054600181600116156101000203166002900480601f0160208091040260200160405190810160405280929190818152602001828054600181600116156101000203166002900480156105785780601f1061054d57610100808354040283529160200191610578565b820191906000526020600020905b81548152906001019060200180831161055b57829003601f168201915b505050505090506105bf565b6040517f08c379a00000000000000000000000000000000000000000000000000000000081526004016105b690612332565b60405180910390fd5b92915050565b6002602052806000526040600020600091509050806000018054600181600116156101000203166002900480601f0160208091040260200160405190810160405280929190818152602001828054600181600116156101000203166002900480156106715780601f1061064657610100808354040283529160200191610671565b820191906000526020600020905b81548152906001019060200180831161065457829003601f168201915b5050505050908060010160009054906101000a900473ffffffffffffffffffffffffffffffffffffffff1690806002015490806003015490806004018054600181600116156101000203166002900480601f0160208091040260200160405190810160405280929190818152602001828054600181600116156101000203166002900480156107415780601f1061071657610100808354040283529160200191610741565b820191906000526020600020905b81548152906001019060200180831161072457829003601f168201915b5050505050908060050154908060060154905087565b6000600160003373ffffffffffffffffffffffffffffffffffffffff1673ffffffffffffffffffffffffffffffffffffffff16815260200190815260200160002060000180546001816001161561010002031660029004905014156107f1576040517f08c379a00000000000000000000000000000000000000000000000000000000081526004016107e890612352565b60405180910390fd5b6108a9600260008581526020019081526020016000206000018054600181600116156101000203166002900480601f01602080910402602001604051908101604052809291908181526020018280546001816001161561010002031660029004801561089e5780601f106108735761010080835404028352916020019161089e565b820191906000526020600020905b81548152906001019060200180831161088157829003601f168201915b5050505050836117b7565b156109a1576108b66117f3565b60405180604001604052803373ffffffffffffffffffffffffffffffffffffffff168152602001838152509050806002600086815260200190815260200160002060070160006002600088815260200190815260200160002060060154815260200190815260200160002060008201518160000160006101000a81548173ffffffffffffffffffffffffffffffffffffffff021916908373ffffffffffffffffffffffffffffffffffffffff160217905550602082015181600101559050506002600085815260200190815260200160002060060160008154809291906001019190505550506109dc565b6040517f08c379a00000000000000000000000000000000000000000000000000000000081526004016109d390612332565b60405180910390fd5b505050565b6000602052806000526040600020600091509050806000018054600181600116156101000203166002900480601f016020809104026020016040519081016040528092919081815260200182805460018160011615610100020316600290048015610a8d5780601f10610a6257610100808354040283529160200191610a8d565b820191906000526020600020905b815481529060010190602001808311610a7057829003601f168201915b505050505090806001018054600181600116156101000203166002900480601f016020809104026020016040519081016040528092919081815260200182805460018160011615610100020316600290048015610b2b5780601f10610b0057610100808354040283529160200191610b2b565b820191906000526020600020905b815481529060010190602001808311610b0e57829003601f168201915b5050505050905082565b600082511415610b7a576040517f08c379a0000000000000000000000000000000000000000000000000000000008152600401610b71906123f2565b60405180910390fd5b633b9aca008110158015610b9357506402540be3ff8111155b610bd2576040517f08c379a0000000000000000000000000000000000000000000000000000000008152600401610bc990612312565b60405180910390fd5b6000600160003373ffffffffffffffffffffffffffffffffffffffff1673ffffffffffffffffffffffffffffffffffffffff16815260200190815260200160002060000180546001816001161561010002031660029004905014610c6b576040517f08c379a0000000000000000000000000000000000000000000000000000000008152600401610c6290612452565b60405180910390fd5b610c73611823565b604051806040016040528084815260200183815250905080600160003373ffffffffffffffffffffffffffffffffffffffff1673ffffffffffffffffffffffffffffffffffffffff1681526020019081526020016000206000820151816000019080519060200190610ce692919061183d565b5060208201518160010155905050505050565b60008060003373ffffffffffffffffffffffffffffffffffffffff1673ffffffffffffffffffffffffffffffffffffffff1681526020019081526020016000206000018054600181600116156101000203166002900490501415610d92576040517f08c379a0000000000000000000000000000000000000000000000000000000008152600401610d8990612432565b60405180910390fd5b600083511415610dd7576040517f08c379a0000000000000000000000000000000000000000000000000000000008152600401610dce906123f2565b60405180910390fd5b80821115610e1a576040517f08c379a0000000000000000000000000000000000000000000000000000000008152600401610e1190612392565b60405180910390fd5b600060026000868152602001908152602001600020905083816000019080519060200190610e499291906118bd565b50338160010160006101000a81548173ffffffffffffffffffffffffffffffffffffffff021916908373ffffffffffffffffffffffffffffffffffffffff1602179055508281600201819055508181600301819055506040518060400160405280600481526020017f6f70656e00000000000000000000000000000000000000000000000000000000815250816004019080519060200190610eec9291906118bd565b507fffffffffffffffffffffffffffffffffffffffffffffffffffffffffffffffff8160050181905550600081600601819055505050505050565b600082511415610f6c576040517f08c379a0000000000000000000000000000000000000000000000000000000008152600401610f63906123f2565b60405180910390fd5b600081511415610fb1576040517f08c379a0000000000000000000000000000000000000000000000000000000008152600401610fa890612372565b60405180910390fd5b60008060003373ffffffffffffffffffffffffffffffffffffffff1673ffffffffffffffffffffffffffffffffffffffff16815260200190815260200160002060000180546001816001161561010002031660029004905014611049576040517f08c379a0000000000000000000000000000000000000000000000000000000008152600401611040906122f2565b60405180910390fd5b61105161193d565b6040518060400160405280848152602001838152509050806000803373ffffffffffffffffffffffffffffffffffffffff1673ffffffffffffffffffffffffffffffffffffffff16815260200190815260200160002060008201518160000190805190602001906110c392919061183d565b5060208201518160010190805190602001906110e092919061183d565b50905050505050565b60008060003373ffffffffffffffffffffffffffffffffffffffff1673ffffffffffffffffffffffffffffffffffffffff1681526020019081526020016000206000018054600181600116156101000203166002900490501415611182576040517f08c379a000000000000000000000000000000000000000000000000000000000815260040161117990612432565b60405180910390fd5b61123a600260008581526020019081526020016000206000018054600181600116156101000203166002900480601f01602080910402602001604051908101604052809291908181526020018280546001816001161561010002031660029004801561122f5780601f106112045761010080835404028352916020019161122f565b820191906000526020600020905b81548152906001019060200180831161121257829003601f168201915b5050505050836117b7565b15611450573373ffffffffffffffffffffffffffffffffffffffff166002600085815260200190815260200160002060010160009054906101000a900473ffffffffffffffffffffffffffffffffffffffff1673ffffffffffffffffffffffffffffffffffffffff1614156114155760008090505b60026000858152602001908152602001600020600601548110156113d9578173ffffffffffffffffffffffffffffffffffffffff1660026000868152602001908152602001600020600701600083815260200190815260200160002060000160009054906101000a900473ffffffffffffffffffffffffffffffffffffffff1673ffffffffffffffffffffffffffffffffffffffff1614156113cc578060026000868152602001908152602001600020600501819055506040518060400160405280600781526020017f736574746c6564000000000000000000000000000000000000000000000000008152506002600086815260200190815260200160002060040190805190602001906113c59291906118bd565b505061148b565b80806001019150506112af565b506040517f08c379a000000000000000000000000000000000000000000000000000000000815260040161140c90612412565b60405180910390fd5b6040517f08c379a0000000000000000000000000000000000000000000000000000000008152600401611447906123b2565b60405180910390fd5b6040517f08c379a000000000000000000000000000000000000000000000000000000000815260040161148290612332565b60405180910390fd5b505050565b60008060003373ffffffffffffffffffffffffffffffffffffffff1673ffffffffffffffffffffffffffffffffffffffff1681526020019081526020016000206000018054600181600116156101000203166002900490501415611529576040517f08c379a000000000000000000000000000000000000000000000000000000000815260040161152090612432565b60405180910390fd5b6115e1600260008581526020019081526020016000206000018054600181600116156101000203166002900480601f0160208091040260200160405190810160405280929190818152602001828054600181600116156101000203166002900480156115d65780601f106115ab576101008083540402835291602001916115d6565b820191906000526020600020905b8154815290600101906020018083116115b957829003601f168201915b5050505050836117b7565b156116bb573373ffffffffffffffffffffffffffffffffffffffff166002600085815260200190815260200160002060010160009054906101000a900473ffffffffffffffffffffffffffffffffffffffff1673ffffffffffffffffffffffffffffffffffffffff161415611680578060026000858152602001908152602001600020600401908051906020019061167a9291906118bd565b506116f6565b6040517f08c379a00000000000000000000000000000000000000000000000000000000081526004016116b2906123b2565b60405180910390fd5b6040517f08c379a00000000000000000000000000000000000000000000000000000000081526004016116ed90612332565b60405180910390fd5b505050565b6001602052806000526040600020600091509050806000018054600181600116156101000203166002900480601f0160208091040260200160405190810160405280929190818152602001828054600181600116156101000203166002900480156117a75780601f1061177c576101008083540402835291602001916117a7565b820191906000526020600020905b81548152906001019060200180831161178a57829003601f168201915b5050505050908060010154905082565b60006117c383836117cb565b905092915050565b6000815183511480156117eb575081805190602001208380519060200120145b905092915050565b6040518060400160405280600073ffffffffffffffffffffffffffffffffffffffff168152602001600081525090565b604051806040016040528060608152602001600081525090565b828054600181600116156101000203166002900490600052602060002090601f016020900481019282601f1061187e57805160ff19168380011785556118ac565b828001600101855582156118ac579182015b828111156118ab578251825591602001919060010190611890565b5b5090506118b99190611957565b5090565b828054600181600116156101000203166002900490600052602060002090601f016020900481019282601f106118fe57805160ff191683800117855561192c565b8280016001018555821561192c579182015b8281111561192b578251825591602001919060010190611910565b5b5090506119399190611957565b5090565b604051806040016040528060608152602001606081525090565b61197991905b8082111561197557600081600090555060010161195d565b5090565b90565b60008135905061198b8161258b565b92915050565b600082601f8301126119a257600080fd5b81356119b56119b08261249f565b612472565b915080825260208301602083018583830111156119d157600080fd5b6119dc838284612538565b50505092915050565b6000813590506119f4816125a2565b92915050565b600060208284031215611a0c57600080fd5b6000611a1a8482850161197c565b91505092915050565b60008060408385031215611a3657600080fd5b600083013567ffffffffffffffff811115611a5057600080fd5b611a5c85828601611991565b925050602083013567ffffffffffffffff811115611a7957600080fd5b611a8585828601611991565b9150509250929050565b60008060408385031215611aa257600080fd5b600083013567ffffffffffffffff811115611abc57600080fd5b611ac885828601611991565b9250506020611ad9858286016119e5565b9150509250929050565b600060208284031215611af557600080fd5b6000611b03848285016119e5565b91505092915050565b60008060408385031215611b1f57600080fd5b6000611b2d858286016119e5565b925050602083013567ffffffffffffffff811115611b4a57600080fd5b611b5685828601611991565b9150509250929050565b600080600060608486031215611b7557600080fd5b6000611b83868287016119e5565b935050602084013567ffffffffffffffff811115611ba057600080fd5b611bac86828701611991565b9250506040611bbd8682870161197c565b9150509250925092565b600080600060608486031215611bdc57600080fd5b6000611bea868287016119e5565b935050602084013567ffffffffffffffff811115611c0757600080fd5b611c1386828701611991565b925050604084013567ffffffffffffffff811115611c3057600080fd5b611c3c86828701611991565b9150509250925092565b600080600060608486031215611c5b57600080fd5b6000611c69868287016119e5565b935050602084013567ffffffffffffffff811115611c8657600080fd5b611c9286828701611991565b9250506040611ca3868287016119e5565b9150509250925092565b60008060008060808587031215611cc357600080fd5b6000611cd1878288016119e5565b945050602085013567ffffffffffffffff811115611cee57600080fd5b611cfa87828801611991565b9350506040611d0b878288016119e5565b9250506060611d1c878288016119e5565b91505092959194509250565b611d31816124f2565b82525050565b611d4081612504565b82525050565b6000611d51826124d6565b611d5b81856124e1565b9350611d6b818560208601612547565b611d748161257a565b840191505092915050565b6000611d8a826124cb565b611d9481856124e1565b9350611da4818560208601612547565b611dad8161257a565b840191505092915050565b6000611dc56032836124e1565b91507f4164766572746973657220776974682074686973206163636f756e742069732060008301527f616c7265616479207265676973746572656400000000000000000000000000006020830152604082019050919050565b6000611e2b601c836124e1565b91507f4e49502068617320746f20626520313020646967697473206c6f6e67000000006000830152602082019050919050565b6000611e6b6020836124e1565b91507f5468657265206973206e6f2061756374696f6e207769746820746869732069646000830152602082019050919050565b6000611eab6025836124e1565b91507f596f7520617265206e6f74207265676973746572656420617320616e206f666660008301527f6572656e740000000000000000000000000000000000000000000000000000006020830152604082019050919050565b6000611f116017836124e1565b91507f436974792068617320746f2062652070726f76696465640000000000000000006000830152602082019050919050565b6000611f516026836124e1565b91507f456e642064617465206d757374206265206c61746572207468616e207374617260008301527f74206461746500000000000000000000000000000000000000000000000000006020830152604082019050919050565b6000611fb7602c836124e1565b91507f596f752061726520616c6c6f77656420746f206368616e6765206f6e6c79207960008301527f6f75722061756374696f6e7300000000000000000000000000000000000000006020830152604082019050919050565b600061201d601a836124e1565b91507f546869732061756374696f6e20686173206e6f2077696e6e65720000000000006000830152602082019050919050565b600061205d6017836124e1565b91507f4e616d652068617320746f2062652070726f76696465640000000000000000006000830152602082019050919050565b600061209d6027836124e1565b91507f41756374696f6e20686173206e6f206f6666657220776974682074686973206f60008301527f66666572656e74000000000000000000000000000000000000000000000000006020830152604082019050919050565b60006121036027836124e1565b91507f596f7520617265206e6f74207265676973746572656420617320616e2061647660008301527f65727469736572000000000000000000000000000000000000000000000000006020830152604082019050919050565b60006121696030836124e1565b91507f4f66666572656e7420776974682074686973206163636f756e7420697320616c60008301527f72656164792072656769737465726564000000000000000000000000000000006020830152604082019050919050565b6121cb8161252e565b82525050565b60006020820190506121e66000830184611d28565b92915050565b600060208201905081810360008301526122068184611d46565b905092915050565b600060e0820190508181036000830152612228818a611d7f565b90506122376020830189611d28565b61224460408301886121c2565b61225160608301876121c2565b81810360808301526122638186611d7f565b905061227260a0830185611d37565b61227f60c08301846121c2565b98975050505050505050565b600060408201905081810360008301526122a58185611d7f565b905081810360208301526122b98184611d7f565b90509392505050565b600060408201905081810360008301526122dc8185611d7f565b90506122eb60208301846121c2565b9392505050565b6000602082019050818103600083015261230b81611db8565b9050919050565b6000602082019050818103600083015261232b81611e1e565b9050919050565b6000602082019050818103600083015261234b81611e5e565b9050919050565b6000602082019050818103600083015261236b81611e9e565b9050919050565b6000602082019050818103600083015261238b81611f04565b9050919050565b600060208201905081810360008301526123ab81611f44565b9050919050565b600060208201905081810360008301526123cb81611faa565b9050919050565b600060208201905081810360008301526123eb81612010565b9050919050565b6000602082019050818103600083015261240b81612050565b9050919050565b6000602082019050818103600083015261242b81612090565b9050919050565b6000602082019050818103600083015261244b816120f6565b9050919050565b6000602082019050818103600083015261246b8161215c565b9050919050565b6000604051905081810181811067ffffffffffffffff8211171561249557600080fd5b8060405250919050565b600067ffffffffffffffff8211156124b657600080fd5b601f19601f8301169050602081019050919050565b600081519050919050565b600081519050919050565b600082825260208201905092915050565b60006124fd8261250e565b9050919050565b6000819050919050565b600073ffffffffffffffffffffffffffffffffffffffff82169050919050565b6000819050919050565b82818337600083830152505050565b60005b8381101561256557808201518184015260208101905061254a565b83811115612574576000848401525b50505050565b6000601f19601f8301169050919050565b612594816124f2565b811461259f57600080fd5b50565b6125ab8161252e565b81146125b657600080fd5b5056fea365627a7a72315820913baeb86fdaad9a9fd8bfbf29381bbcb43ab36148601ca724a53a3aaccf85806c6578706572696d656e74616cf564736f6c63430005100040",
  "source": "pragma solidity >=0.4.22 <0.8.0;\npragma experimental ABIEncoderV2;\n\ncontract Auctions {\n  struct Auction {\n    string auction_name;\n    address advertiser_addr;\n    uint256 start_date;\n    uint256 end_date;\n    string status;\n    int256 id_winner;\n    uint256 offersCounter;\n    mapping(uint256 => Offer) offers;\n  }\n\n  struct Advertiser {\n    string advertiser_name;\n    string city;\n  }\n\n  struct Offerent {\n    string offerent_name;\n    uint256 NIP;\n  }\n\n  struct Offer {\n    address offerent_addr;\n    uint256 price; // price in gr, no float type\n  }\n\n  mapping(address => Advertiser) public advertisers;\n  mapping(address => Offerent) public offerents;\n\n  mapping(uint256 => Auction) public auctions;\n\n  constructor() public {}\n\n  //should be called each time an advertiser creates account\n  function registerAdvertiser(string memory name, string memory city) public {\n    require(bytes(name).length != 0, 'Name has to be provided');\n    require(bytes(city).length != 0, 'City has to be provided');\n    require(\n      bytes(advertisers[msg.sender].advertiser_name).length == 0,\n      'Advertiser with this account is already registered'\n    );\n    Advertiser memory newAdvertiser = Advertiser(name, city);\n    advertisers[msg.sender] = newAdvertiser;\n  }\n\n  //should be called each time an offerent creates account\n  function registerOfferent(\n    string memory name,\n    uint256 NIP\n  ) public {\n    require(bytes(name).length != 0, 'Name has to be provided');\n    require(NIP >= 1000000000 && NIP <= 9999999999, 'NIP has to be 10 digits long'); //easiest way to require 10 digits\n    require(\n      bytes(offerents[msg.sender].offerent_name).length == 0,\n      'Offerent with this account is already registered'\n    );\n    Offerent memory newOfferent = Offerent(name, NIP);\n    offerents[msg.sender] = newOfferent;\n  }\n\n  function createAuction(\n    uint256 id,\n    string memory name,\n    uint256 startDate,\n    uint256 endDate\n  ) public {\n    require(\n      bytes(advertisers[msg.sender].advertiser_name).length != 0,\n      'You are not registered as an advertiser'\n    ); // advertiser exists\n    require(bytes(name).length != 0, 'Name has to be provided');\n    require(startDate <= endDate, 'End date must be later than start date');\n    Auction storage auction = auctions[id];\n    auction.auction_name = name;\n    auction.advertiser_addr = msg.sender;\n    auction.start_date = startDate;\n    auction.end_date = endDate;\n    auction.status = 'open';\n    auction.id_winner = -1;\n    auction.offersCounter = 0;\n  }\n\n  function setAuctionStatus(\n    uint256 auction_id,\n    string memory auction_name,\n    string memory status\n  ) public {\n    require(\n      bytes(advertisers[msg.sender].advertiser_name).length != 0,\n      'You are not registered as an advertiser'\n    );\n    if (strcmp(auctions[auction_id].auction_name, auction_name)) {\n      if (auctions[auction_id].advertiser_addr == msg.sender) {\n        auctions[auction_id].status = status;\n        return;\n      } else {\n        revert('You are allowed to change only your auctions');\n      }\n    }\n    revert('There is no auction with this id');\n  }\n\n  function setAuctionWinner(\n    uint256 auction_id,\n    string memory auction_name,\n    address winnerAddr\n  ) public {\n    require(\n      bytes(advertisers[msg.sender].advertiser_name).length != 0,\n      'You are not registered as an advertiser'\n    );\n    if (strcmp(auctions[auction_id].auction_name, auction_name)) {\n      if (auctions[auction_id].advertiser_addr == msg.sender) {\n        for (uint256 j = 0; j < auctions[auction_id].offersCounter; j++) {\n          if (auctions[auction_id].offers[j].offerent_addr == winnerAddr) {\n            auctions[auction_id].id_winner = int256(j);\n            auctions[auction_id].status = 'settled'; //rozstrzygnite\n            return;\n          }\n        }\n        revert('Auction has no offer with this offerent');\n      } else {\n        revert('You are allowed to change only your auctions');\n      }\n    }\n    revert('There is no auction with this id');\n  }\n\n  function makeOffer(\n    uint256 auction_id,\n    string memory auction_name,\n    uint256 price\n  ) public {\n    require(\n      bytes(offerents[msg.sender].offerent_name).length != 0,\n      'You are not registered as an offerent'\n    );\n    if (strcmp(auctions[auction_id].auction_name, auction_name)) {\n      Offer memory newOffer = Offer(msg.sender, price);\n      auctions[auction_id].offers[auctions[auction_id].offersCounter] = newOffer;\n      auctions[auction_id].offersCounter++;\n      return;\n    }\n    revert('There is no auction with this id');\n  }\n\n  /*\n    function getAuctionOffers(string memory auctionName) public view returns(Offer[] memory) {\n        require(auctionsCounter > 0, \"There is no auction\");\n        for (uint256 i = 0; i < auctionsCounter; i++) {\n            if (strcmp(auctions[i].auction_name, auctionName)) {\n                Offer[] memory newOffers = new Offer[](auctions[i].offersCounter);\n                for (uint j = 0; j < auctions[i].offersCounter; j++) {\n                    newOffers[j] = auctions[i].offers[j];\n                }\n                return newOffers;\n            }\n        }\n        revert(\"There is no auction with this name\");\n    }*/\n  // Something else\n  function getAuctionStatus(uint256 auction_id, string memory auction_name)\n    public\n    view\n    returns (string memory)\n  {\n    if (strcmp(auctions[auction_id].auction_name, auction_name)) {\n      return auctions[auction_id].status;\n    }\n    revert('There is no auction with this id');\n  }\n\n  function getAuctionWinner(uint256 auction_id, string memory auction_name)\n    public\n    view\n    returns (address)\n  {\n    if (strcmp(auctions[auction_id].auction_name, auction_name)) {\n      if (auctions[auction_id].id_winner >= 0) {\n        return auctions[auction_id].offers[uint256(auctions[auction_id].id_winner)].offerent_addr;\n      } else {\n        revert('This auction has no winner');\n      }\n    }\n    revert('There is no auction with this id');\n  }\n\n  function memcmp(bytes memory a, bytes memory b) internal pure returns (bool) {\n    return (a.length == b.length) && (keccak256(a) == keccak256(b));\n  }\n\n  function strcmp(string memory a, string memory b) internal pure returns (bool) {\n    return memcmp(bytes(a), bytes(b));\n  }\n}\n",
  "sourcePath": "/home/Marek/Studies/Inzynierka/fds-frontend/contracts/Auctions.sol",
  "compiler": {
    "name": "solc",
    "version": "0.5.16+commit.9c3226ce.Emscripten.clang"
  },
  "schemaVersion": "3.4.10",
  "updatedAt": "2022-12-04T19:40:47.105Z",
  "networkType": "ethereum",
  "devdoc": {
    "methods": {}
  },
  "userdoc": {
    "methods": {}
  }
}