{
  "contractName": "Auctions",
  "abi": [
    {
      "inputs": [],
      "payable": false,
      "stateMutability": "nonpayable",
      "type": "constructor"
    },
    {
      "constant": true,
      "inputs": [
        {
          "internalType": "address",
          "name": "",
          "type": "address"
        }
      ],
      "name": "advertisers",
      "outputs": [
        {
          "internalType": "string",
          "name": "advertiser_name",
          "type": "string"
        },
        {
          "internalType": "string",
          "name": "city",
          "type": "string"
        }
      ],
      "payable": false,
      "stateMutability": "view",
      "type": "function"
    },
    {
      "constant": true,
      "inputs": [
        {
          "internalType": "uint256",
          "name": "",
          "type": "uint256"
        }
      ],
      "name": "auctions",
      "outputs": [
        {
          "internalType": "string",
          "name": "auction_name",
          "type": "string"
        },
        {
          "internalType": "address",
          "name": "advertiser_addr",
          "type": "address"
        },
        {
          "internalType": "uint256",
          "name": "start_date",
          "type": "uint256"
        },
        {
          "internalType": "uint256",
          "name": "end_date",
          "type": "uint256"
        },
        {
          "internalType": "string",
          "name": "status",
          "type": "string"
        },
        {
          "internalType": "int256",
          "name": "id_winner",
          "type": "int256"
        },
        {
          "internalType": "uint256",
          "name": "offersCounter",
          "type": "uint256"
        }
      ],
      "payable": false,
      "stateMutability": "view",
      "type": "function"
    },
    {
      "constant": true,
      "inputs": [
        {
          "internalType": "address",
          "name": "",
          "type": "address"
        }
      ],
      "name": "offerents",
      "outputs": [
        {
          "internalType": "string",
          "name": "offerent_name",
          "type": "string"
        },
        {
          "internalType": "uint256",
          "name": "NIP",
          "type": "uint256"
        },
        {
          "internalType": "string",
          "name": "owner",
          "type": "string"
        }
      ],
      "payable": false,
      "stateMutability": "view",
      "type": "function"
    },
    {
      "constant": false,
      "inputs": [
        {
          "internalType": "string",
          "name": "name",
          "type": "string"
        },
        {
          "internalType": "string",
          "name": "city",
          "type": "string"
        }
      ],
      "name": "registerAdvertiser",
      "outputs": [],
      "payable": false,
      "stateMutability": "nonpayable",
      "type": "function"
    },
    {
      "constant": false,
      "inputs": [
        {
          "internalType": "string",
          "name": "name",
          "type": "string"
        },
        {
          "internalType": "uint256",
          "name": "NIP",
          "type": "uint256"
        },
        {
          "internalType": "string",
          "name": "owner",
          "type": "string"
        }
      ],
      "name": "registerOfferent",
      "outputs": [],
      "payable": false,
      "stateMutability": "nonpayable",
      "type": "function"
    },
    {
      "constant": false,
      "inputs": [
        {
          "internalType": "uint256",
          "name": "id",
          "type": "uint256"
        },
        {
          "internalType": "string",
          "name": "name",
          "type": "string"
        },
        {
          "internalType": "uint256",
          "name": "startDate",
          "type": "uint256"
        },
        {
          "internalType": "uint256",
          "name": "endDate",
          "type": "uint256"
        }
      ],
      "name": "createAuction",
      "outputs": [],
      "payable": false,
      "stateMutability": "nonpayable",
      "type": "function"
    },
    {
      "constant": false,
      "inputs": [
        {
          "internalType": "uint256",
          "name": "auction_id",
          "type": "uint256"
        },
        {
          "internalType": "string",
          "name": "auction_name",
          "type": "string"
        },
        {
          "internalType": "string",
          "name": "status",
          "type": "string"
        }
      ],
      "name": "setAuctionStatus",
      "outputs": [],
      "payable": false,
      "stateMutability": "nonpayable",
      "type": "function"
    },
    {
      "constant": false,
      "inputs": [
        {
          "internalType": "uint256",
          "name": "auction_id",
          "type": "uint256"
        },
        {
          "internalType": "string",
          "name": "auction_name",
          "type": "string"
        },
        {
          "internalType": "address",
          "name": "winnerAddr",
          "type": "address"
        }
      ],
      "name": "setAuctionWinner",
      "outputs": [],
      "payable": false,
      "stateMutability": "nonpayable",
      "type": "function"
    },
    {
      "constant": false,
      "inputs": [
        {
          "internalType": "uint256",
          "name": "auction_id",
          "type": "uint256"
        },
        {
          "internalType": "string",
          "name": "auction_name",
          "type": "string"
        },
        {
          "internalType": "uint256",
          "name": "price",
          "type": "uint256"
        }
      ],
      "name": "makeOffer",
      "outputs": [],
      "payable": false,
      "stateMutability": "nonpayable",
      "type": "function"
    },
    {
      "constant": true,
      "inputs": [
        {
          "internalType": "uint256",
          "name": "auction_id",
          "type": "uint256"
        },
        {
          "internalType": "string",
          "name": "auction_name",
          "type": "string"
        }
      ],
      "name": "getAuctionStatus",
      "outputs": [
        {
          "internalType": "string",
          "name": "",
          "type": "string"
        }
      ],
      "payable": false,
      "stateMutability": "view",
      "type": "function"
    },
    {
      "constant": true,
      "inputs": [
        {
          "internalType": "uint256",
          "name": "auction_id",
          "type": "uint256"
        },
        {
          "internalType": "string",
          "name": "auction_name",
          "type": "string"
        }
      ],
      "name": "getAuctionWinner",
      "outputs": [
        {
          "internalType": "address",
          "name": "",
          "type": "address"
        }
      ],
      "payable": false,
      "stateMutability": "view",
      "type": "function"
    }
  ],
  "bytecode": "0x608060405234801561001057600080fd5b506127ab806100206000396000f3fe608060405234801561001057600080fd5b50600436106100a95760003560e01c80635c40746f116100715780635c40746f146101915780638edb3390146101ad5780639d50345e146101c9578063d3257cd5146101e5578063ed88cb0d14610201578063fe5e3d131461021d576100a9565b80630583063a146100ae57806323b8145a146100de578063571a26a01461010e5780635a5191a5146101445780635b80100714610160575b600080fd5b6100c860048036036100c39190810190611c46565b61024f565b6040516100d5919061234b565b60405180910390f35b6100f860048036036100f39190810190611c46565b610410565b6040516101059190612366565b60405180910390f35b61012860048036036101239190810190611c1d565b6105c6565b60405161013b9796959493929190612388565b60405180910390f35b61015e60048036036101599190810190611d80565b610758565b005b61017a60048036036101759190810190611b09565b6109e2565b604051610188929190612405565b60405180910390f35b6101ab60048036036101a69190810190611b9e565b610b36565b005b6101c760048036036101c29190810190611de7565b610d63565b005b6101e360048036036101de9190810190611b32565b610f91565b005b6101ff60048036036101fa9190810190611c9a565b611153565b005b61021b60048036036102169190810190611d01565b6114fa565b005b61023760048036036102329190810190611b09565b611765565b6040516102469392919061243c565b60405180910390f35b6000610309600260008581526020019081526020016000206000018054600181600116156101000203166002900480601f0160208091040260200160405190810160405280929190818152602001828054600181600116156101000203166002900480156102fe5780601f106102d3576101008083540402835291602001916102fe565b820191906000526020600020905b8154815290600101906020018083116102e157829003601f168201915b5050505050836118bf565b156103cf576000600260008581526020019081526020016000206005015412610394576002600084815260200190815260200160002060070160006002600086815260200190815260200160002060050154815260200190815260200160002060000160009054906101000a900473ffffffffffffffffffffffffffffffffffffffff16905061040a565b6040517f08c379a00000000000000000000000000000000000000000000000000000000081526004016103c690612561565b60405180910390fd5b6040517f08c379a0000000000000000000000000000000000000000000000000000000008152600401610401906124c1565b60405180910390fd5b92915050565b60606104ca600260008581526020019081526020016000206000018054600181600116156101000203166002900480601f0160208091040260200160405190810160405280929190818152602001828054600181600116156101000203166002900480156104bf5780601f10610494576101008083540402835291602001916104bf565b820191906000526020600020905b8154815290600101906020018083116104a257829003601f168201915b5050505050836118bf565b1561058557600260008481526020019081526020016000206004018054600181600116156101000203166002900480601f0160208091040260200160405190810160405280929190818152602001828054600181600116156101000203166002900480156105795780601f1061054e57610100808354040283529160200191610579565b820191906000526020600020905b81548152906001019060200180831161055c57829003601f168201915b505050505090506105c0565b6040517f08c379a00000000000000000000000000000000000000000000000000000000081526004016105b7906124c1565b60405180910390fd5b92915050565b6002602052806000526040600020600091509050806000018054600181600116156101000203166002900480601f0160208091040260200160405190810160405280929190818152602001828054600181600116156101000203166002900480156106725780601f1061064757610100808354040283529160200191610672565b820191906000526020600020905b81548152906001019060200180831161065557829003601f168201915b5050505050908060010160009054906101000a900473ffffffffffffffffffffffffffffffffffffffff1690806002015490806003015490806004018054600181600116156101000203166002900480601f0160208091040260200160405190810160405280929190818152602001828054600181600116156101000203166002900480156107425780601f1061071757610100808354040283529160200191610742565b820191906000526020600020905b81548152906001019060200180831161072557829003601f168201915b5050505050908060050154908060060154905087565b6000600160003373ffffffffffffffffffffffffffffffffffffffff1673ffffffffffffffffffffffffffffffffffffffff16815260200190815260200160002060000180546001816001161561010002031660029004905014156107f2576040517f08c379a00000000000000000000000000000000000000000000000000000000081526004016107e9906124e1565b60405180910390fd5b6108aa600260008581526020019081526020016000206000018054600181600116156101000203166002900480601f01602080910402602001604051908101604052809291908181526020018280546001816001161561010002031660029004801561089f5780601f106108745761010080835404028352916020019161089f565b820191906000526020600020905b81548152906001019060200180831161088257829003601f168201915b5050505050836118bf565b156109a2576108b76118fb565b60405180604001604052803373ffffffffffffffffffffffffffffffffffffffff168152602001838152509050806002600086815260200190815260200160002060070160006002600088815260200190815260200160002060060154815260200190815260200160002060008201518160000160006101000a81548173ffffffffffffffffffffffffffffffffffffffff021916908373ffffffffffffffffffffffffffffffffffffffff160217905550602082015181600101559050506002600085815260200190815260200160002060060160008154809291906001019190505550506109dd565b6040517f08c379a00000000000000000000000000000000000000000000000000000000081526004016109d4906124c1565b60405180910390fd5b505050565b6000602052806000526040600020600091509050806000018054600181600116156101000203166002900480601f016020809104026020016040519081016040528092919081815260200182805460018160011615610100020316600290048015610a8e5780601f10610a6357610100808354040283529160200191610a8e565b820191906000526020600020905b815481529060010190602001808311610a7157829003601f168201915b505050505090806001018054600181600116156101000203166002900480601f016020809104026020016040519081016040528092919081815260200182805460018160011615610100020316600290048015610b2c5780601f10610b0157610100808354040283529160200191610b2c565b820191906000526020600020905b815481529060010190602001808311610b0f57829003601f168201915b5050505050905082565b600083511415610b7b576040517f08c379a0000000000000000000000000000000000000000000000000000000008152600401610b7290612581565b60405180910390fd5b600081511415610bc0576040517f08c379a0000000000000000000000000000000000000000000000000000000008152600401610bb7906125c1565b60405180910390fd5b633b9aca008210158015610bd957506402540be3ff8211155b610c18576040517f08c379a0000000000000000000000000000000000000000000000000000000008152600401610c0f906124a1565b60405180910390fd5b6000600160003373ffffffffffffffffffffffffffffffffffffffff1673ffffffffffffffffffffffffffffffffffffffff16815260200190815260200160002060000180546001816001161561010002031660029004905014610cb1576040517f08c379a0000000000000000000000000000000000000000000000000000000008152600401610ca890612601565b60405180910390fd5b610cb961192b565b604051806060016040528085815260200184815260200183815250905080600160003373ffffffffffffffffffffffffffffffffffffffff1673ffffffffffffffffffffffffffffffffffffffff1681526020019081526020016000206000820151816000019080519060200190610d3292919061194c565b50602082015181600101556040820151816002019080519060200190610d5992919061194c565b5090505050505050565b60008060003373ffffffffffffffffffffffffffffffffffffffff1673ffffffffffffffffffffffffffffffffffffffff1681526020019081526020016000206000018054600181600116156101000203166002900490501415610dfc576040517f08c379a0000000000000000000000000000000000000000000000000000000008152600401610df3906125e1565b60405180910390fd5b600083511415610e41576040517f08c379a0000000000000000000000000000000000000000000000000000000008152600401610e3890612581565b60405180910390fd5b80821115610e84576040517f08c379a0000000000000000000000000000000000000000000000000000000008152600401610e7b90612521565b60405180910390fd5b600060026000868152602001908152602001600020905083816000019080519060200190610eb39291906119cc565b50338160010160006101000a81548173ffffffffffffffffffffffffffffffffffffffff021916908373ffffffffffffffffffffffffffffffffffffffff1602179055508281600201819055508181600301819055506040518060400160405280600481526020017f6f70656e00000000000000000000000000000000000000000000000000000000815250816004019080519060200190610f569291906119cc565b507fffffffffffffffffffffffffffffffffffffffffffffffffffffffffffffffff8160050181905550600081600601819055505050505050565b600082511415610fd6576040517f08c379a0000000000000000000000000000000000000000000000000000000008152600401610fcd90612581565b60405180910390fd5b60008151141561101b576040517f08c379a000000000000000000000000000000000000000000000000000000000815260040161101290612501565b60405180910390fd5b60008060003373ffffffffffffffffffffffffffffffffffffffff1673ffffffffffffffffffffffffffffffffffffffff168152602001908152602001600020600001805460018160011615610100020316600290049050146110b3576040517f08c379a00000000000000000000000000000000000000000000000000000000081526004016110aa90612481565b60405180910390fd5b6110bb611a4c565b6040518060400160405280848152602001838152509050806000803373ffffffffffffffffffffffffffffffffffffffff1673ffffffffffffffffffffffffffffffffffffffff168152602001908152602001600020600082015181600001908051906020019061112d92919061194c565b50602082015181600101908051906020019061114a92919061194c565b50905050505050565b60008060003373ffffffffffffffffffffffffffffffffffffffff1673ffffffffffffffffffffffffffffffffffffffff16815260200190815260200160002060000180546001816001161561010002031660029004905014156111ec576040517f08c379a00000000000000000000000000000000000000000000000000000000081526004016111e3906125e1565b60405180910390fd5b6112a4600260008581526020019081526020016000206000018054600181600116156101000203166002900480601f0160208091040260200160405190810160405280929190818152602001828054600181600116156101000203166002900480156112995780601f1061126e57610100808354040283529160200191611299565b820191906000526020600020905b81548152906001019060200180831161127c57829003601f168201915b5050505050836118bf565b156114ba573373ffffffffffffffffffffffffffffffffffffffff166002600085815260200190815260200160002060010160009054906101000a900473ffffffffffffffffffffffffffffffffffffffff1673ffffffffffffffffffffffffffffffffffffffff16141561147f5760008090505b6002600085815260200190815260200160002060060154811015611443578173ffffffffffffffffffffffffffffffffffffffff1660026000868152602001908152602001600020600701600083815260200190815260200160002060000160009054906101000a900473ffffffffffffffffffffffffffffffffffffffff1673ffffffffffffffffffffffffffffffffffffffff161415611436578060026000868152602001908152602001600020600501819055506040518060400160405280600781526020017f736574746c65640000000000000000000000000000000000000000000000000081525060026000868152602001908152602001600020600401908051906020019061142f9291906119cc565b50506114f5565b8080600101915050611319565b506040517f08c379a0000000000000000000000000000000000000000000000000000000008152600401611476906125a1565b60405180910390fd5b6040517f08c379a00000000000000000000000000000000000000000000000000000000081526004016114b190612541565b60405180910390fd5b6040517f08c379a00000000000000000000000000000000000000000000000000000000081526004016114ec906124c1565b60405180910390fd5b505050565b60008060003373ffffffffffffffffffffffffffffffffffffffff1673ffffffffffffffffffffffffffffffffffffffff1681526020019081526020016000206000018054600181600116156101000203166002900490501415611593576040517f08c379a000000000000000000000000000000000000000000000000000000000815260040161158a906125e1565b60405180910390fd5b61164b600260008581526020019081526020016000206000018054600181600116156101000203166002900480601f0160208091040260200160405190810160405280929190818152602001828054600181600116156101000203166002900480156116405780601f1061161557610100808354040283529160200191611640565b820191906000526020600020905b81548152906001019060200180831161162357829003601f168201915b5050505050836118bf565b15611725573373ffffffffffffffffffffffffffffffffffffffff166002600085815260200190815260200160002060010160009054906101000a900473ffffffffffffffffffffffffffffffffffffffff1673ffffffffffffffffffffffffffffffffffffffff1614156116ea57806002600085815260200190815260200160002060040190805190602001906116e49291906119cc565b50611760565b6040517f08c379a000000000000000000000000000000000000000000000000000000000815260040161171c90612541565b60405180910390fd5b6040517f08c379a0000000000000000000000000000000000000000000000000000000008152600401611757906124c1565b60405180910390fd5b505050565b6001602052806000526040600020600091509050806000018054600181600116156101000203166002900480601f0160208091040260200160405190810160405280929190818152602001828054600181600116156101000203166002900480156118115780601f106117e657610100808354040283529160200191611811565b820191906000526020600020905b8154815290600101906020018083116117f457829003601f168201915b505050505090806001015490806002018054600181600116156101000203166002900480601f0160208091040260200160405190810160405280929190818152602001828054600181600116156101000203166002900480156118b55780601f1061188a576101008083540402835291602001916118b5565b820191906000526020600020905b81548152906001019060200180831161189857829003601f168201915b5050505050905083565b60006118cb83836118d3565b905092915050565b6000815183511480156118f3575081805190602001208380519060200120145b905092915050565b6040518060400160405280600073ffffffffffffffffffffffffffffffffffffffff168152602001600081525090565b60405180606001604052806060815260200160008152602001606081525090565b828054600181600116156101000203166002900490600052602060002090601f016020900481019282601f1061198d57805160ff19168380011785556119bb565b828001600101855582156119bb579182015b828111156119ba57825182559160200191906001019061199f565b5b5090506119c89190611a66565b5090565b828054600181600116156101000203166002900490600052602060002090601f016020900481019282601f10611a0d57805160ff1916838001178555611a3b565b82800160010185558215611a3b579182015b82811115611a3a578251825591602001919060010190611a1f565b5b509050611a489190611a66565b5090565b604051806040016040528060608152602001606081525090565b611a8891905b80821115611a84576000816000905550600101611a6c565b5090565b90565b600081359050611a9a8161273a565b92915050565b600082601f830112611ab157600080fd5b8135611ac4611abf8261264e565b612621565b91508082526020830160208301858383011115611ae057600080fd5b611aeb8382846126e7565b50505092915050565b600081359050611b0381612751565b92915050565b600060208284031215611b1b57600080fd5b6000611b2984828501611a8b565b91505092915050565b60008060408385031215611b4557600080fd5b600083013567ffffffffffffffff811115611b5f57600080fd5b611b6b85828601611aa0565b925050602083013567ffffffffffffffff811115611b8857600080fd5b611b9485828601611aa0565b9150509250929050565b600080600060608486031215611bb357600080fd5b600084013567ffffffffffffffff811115611bcd57600080fd5b611bd986828701611aa0565b9350506020611bea86828701611af4565b925050604084013567ffffffffffffffff811115611c0757600080fd5b611c1386828701611aa0565b9150509250925092565b600060208284031215611c2f57600080fd5b6000611c3d84828501611af4565b91505092915050565b60008060408385031215611c5957600080fd5b6000611c6785828601611af4565b925050602083013567ffffffffffffffff811115611c8457600080fd5b611c9085828601611aa0565b9150509250929050565b600080600060608486031215611caf57600080fd5b6000611cbd86828701611af4565b935050602084013567ffffffffffffffff811115611cda57600080fd5b611ce686828701611aa0565b9250506040611cf786828701611a8b565b9150509250925092565b600080600060608486031215611d1657600080fd5b6000611d2486828701611af4565b935050602084013567ffffffffffffffff811115611d4157600080fd5b611d4d86828701611aa0565b925050604084013567ffffffffffffffff811115611d6a57600080fd5b611d7686828701611aa0565b9150509250925092565b600080600060608486031215611d9557600080fd5b6000611da386828701611af4565b935050602084013567ffffffffffffffff811115611dc057600080fd5b611dcc86828701611aa0565b9250506040611ddd86828701611af4565b9150509250925092565b60008060008060808587031215611dfd57600080fd5b6000611e0b87828801611af4565b945050602085013567ffffffffffffffff811115611e2857600080fd5b611e3487828801611aa0565b9350506040611e4587828801611af4565b9250506060611e5687828801611af4565b91505092959194509250565b611e6b816126a1565b82525050565b611e7a816126b3565b82525050565b6000611e8b82612685565b611e958185612690565b9350611ea58185602086016126f6565b611eae81612729565b840191505092915050565b6000611ec48261267a565b611ece8185612690565b9350611ede8185602086016126f6565b611ee781612729565b840191505092915050565b6000611eff603283612690565b91507f4164766572746973657220776974682074686973206163636f756e742069732060008301527f616c7265616479207265676973746572656400000000000000000000000000006020830152604082019050919050565b6000611f65601c83612690565b91507f4e49502068617320746f20626520313020646967697473206c6f6e67000000006000830152602082019050919050565b6000611fa5602083612690565b91507f5468657265206973206e6f2061756374696f6e207769746820746869732069646000830152602082019050919050565b6000611fe5602583612690565b91507f596f7520617265206e6f74207265676973746572656420617320616e206f666660008301527f6572656e740000000000000000000000000000000000000000000000000000006020830152604082019050919050565b600061204b601783612690565b91507f436974792068617320746f2062652070726f76696465640000000000000000006000830152602082019050919050565b600061208b602683612690565b91507f456e642064617465206d757374206265206c61746572207468616e207374617260008301527f74206461746500000000000000000000000000000000000000000000000000006020830152604082019050919050565b60006120f1602c83612690565b91507f596f752061726520616c6c6f77656420746f206368616e6765206f6e6c79207960008301527f6f75722061756374696f6e7300000000000000000000000000000000000000006020830152604082019050919050565b6000612157601a83612690565b91507f546869732061756374696f6e20686173206e6f2077696e6e65720000000000006000830152602082019050919050565b6000612197601783612690565b91507f4e616d652068617320746f2062652070726f76696465640000000000000000006000830152602082019050919050565b60006121d7602783612690565b91507f41756374696f6e20686173206e6f206f6666657220776974682074686973206f60008301527f66666572656e74000000000000000000000000000000000000000000000000006020830152604082019050919050565b600061223d601883612690565b91507f4f776e65722068617320746f2062652070726f766964656400000000000000006000830152602082019050919050565b600061227d602783612690565b91507f596f7520617265206e6f74207265676973746572656420617320616e2061647660008301527f65727469736572000000000000000000000000000000000000000000000000006020830152604082019050919050565b60006122e3603083612690565b91507f4f66666572656e7420776974682074686973206163636f756e7420697320616c60008301527f72656164792072656769737465726564000000000000000000000000000000006020830152604082019050919050565b612345816126dd565b82525050565b60006020820190506123606000830184611e62565b92915050565b600060208201905081810360008301526123808184611e80565b905092915050565b600060e08201905081810360008301526123a2818a611eb9565b90506123b16020830189611e62565b6123be604083018861233c565b6123cb606083018761233c565b81810360808301526123dd8186611eb9565b90506123ec60a0830185611e71565b6123f960c083018461233c565b98975050505050505050565b6000604082019050818103600083015261241f8185611eb9565b905081810360208301526124338184611eb9565b90509392505050565b600060608201905081810360008301526124568186611eb9565b9050612465602083018561233c565b81810360408301526124778184611eb9565b9050949350505050565b6000602082019050818103600083015261249a81611ef2565b9050919050565b600060208201905081810360008301526124ba81611f58565b9050919050565b600060208201905081810360008301526124da81611f98565b9050919050565b600060208201905081810360008301526124fa81611fd8565b9050919050565b6000602082019050818103600083015261251a8161203e565b9050919050565b6000602082019050818103600083015261253a8161207e565b9050919050565b6000602082019050818103600083015261255a816120e4565b9050919050565b6000602082019050818103600083015261257a8161214a565b9050919050565b6000602082019050818103600083015261259a8161218a565b9050919050565b600060208201905081810360008301526125ba816121ca565b9050919050565b600060208201905081810360008301526125da81612230565b9050919050565b600060208201905081810360008301526125fa81612270565b9050919050565b6000602082019050818103600083015261261a816122d6565b9050919050565b6000604051905081810181811067ffffffffffffffff8211171561264457600080fd5b8060405250919050565b600067ffffffffffffffff82111561266557600080fd5b601f19601f8301169050602081019050919050565b600081519050919050565b600081519050919050565b600082825260208201905092915050565b60006126ac826126bd565b9050919050565b6000819050919050565b600073ffffffffffffffffffffffffffffffffffffffff82169050919050565b6000819050919050565b82818337600083830152505050565b60005b838110156127145780820151818401526020810190506126f9565b83811115612723576000848401525b50505050565b6000601f19601f8301169050919050565b612743816126a1565b811461274e57600080fd5b50565b61275a816126dd565b811461276557600080fd5b5056fea365627a7a723158205916241aa21dd5e0447613e20ceadc660cb670f5147a3e7b213a4b99fbfef8396c6578706572696d656e74616cf564736f6c63430005100040",
  "source": "pragma solidity >=0.4.22 <0.8.0;\npragma experimental ABIEncoderV2;\n\ncontract Auctions {\n  struct Auction {\n    string auction_name;\n    address advertiser_addr;\n    uint256 start_date;\n    uint256 end_date;\n    string status;\n    int256 id_winner;\n    uint256 offersCounter;\n    mapping(uint256 => Offer) offers;\n  }\n\n  struct Advertiser {\n    string advertiser_name;\n    string city;\n  }\n\n  struct Offerent {\n    string offerent_name;\n    uint256 NIP;\n    string owner; // in offerents or diff place?\n  }\n\n  struct Offer {\n    address offerent_addr;\n    uint256 price; // price in gr, no float type\n  }\n\n  mapping(address => Advertiser) public advertisers;\n  mapping(address => Offerent) public offerents;\n\n  mapping(uint256 => Auction) public auctions;\n\n  constructor() public {}\n\n  //should be called each time an advertiser creates account\n  function registerAdvertiser(string memory name, string memory city) public {\n    require(bytes(name).length != 0, 'Name has to be provided');\n    require(bytes(city).length != 0, 'City has to be provided');\n    require(\n      bytes(advertisers[msg.sender].advertiser_name).length == 0,\n      'Advertiser with this account is already registered'\n    );\n    Advertiser memory newAdvertiser = Advertiser(name, city);\n    advertisers[msg.sender] = newAdvertiser;\n  }\n\n  //should be called each time an offerent creates account\n  function registerOfferent(\n    string memory name,\n    uint256 NIP,\n    string memory owner\n  ) public {\n    require(bytes(name).length != 0, 'Name has to be provided');\n    require(bytes(owner).length != 0, 'Owner has to be provided');\n    require(NIP >= 1000000000 && NIP <= 9999999999, 'NIP has to be 10 digits long'); //easiest way to require 10 digits\n    require(\n      bytes(offerents[msg.sender].offerent_name).length == 0,\n      'Offerent with this account is already registered'\n    );\n    Offerent memory newOfferent = Offerent(name, NIP, owner);\n    offerents[msg.sender] = newOfferent;\n  }\n\n  function createAuction(\n    uint256 id,\n    string memory name,\n    uint256 startDate,\n    uint256 endDate\n  ) public {\n    require(\n      bytes(advertisers[msg.sender].advertiser_name).length != 0,\n      'You are not registered as an advertiser'\n    ); // advertiser exists\n    require(bytes(name).length != 0, 'Name has to be provided');\n    require(startDate <= endDate, 'End date must be later than start date');\n    Auction storage auction = auctions[id];\n    auction.auction_name = name;\n    auction.advertiser_addr = msg.sender;\n    auction.start_date = startDate;\n    auction.end_date = endDate;\n    auction.status = 'open';\n    auction.id_winner = -1;\n    auction.offersCounter = 0;\n  }\n\n  function setAuctionStatus(\n    uint256 auction_id,\n    string memory auction_name,\n    string memory status\n  ) public {\n    require(\n      bytes(advertisers[msg.sender].advertiser_name).length != 0,\n      'You are not registered as an advertiser'\n    );\n    if (strcmp(auctions[auction_id].auction_name, auction_name)) {\n      if (auctions[auction_id].advertiser_addr == msg.sender) {\n        auctions[auction_id].status = status;\n        return;\n      } else {\n        revert('You are allowed to change only your auctions');\n      }\n    }\n    revert('There is no auction with this id');\n  }\n\n  function setAuctionWinner(\n    uint256 auction_id,\n    string memory auction_name,\n    address winnerAddr\n  ) public {\n    require(\n      bytes(advertisers[msg.sender].advertiser_name).length != 0,\n      'You are not registered as an advertiser'\n    );\n    if (strcmp(auctions[auction_id].auction_name, auction_name)) {\n      if (auctions[auction_id].advertiser_addr == msg.sender) {\n        for (uint256 j = 0; j < auctions[auction_id].offersCounter; j++) {\n          if (auctions[auction_id].offers[j].offerent_addr == winnerAddr) {\n            auctions[auction_id].id_winner = int256(j);\n            auctions[auction_id].status = 'settled'; //rozstrzygnite\n            return;\n          }\n        }\n        revert('Auction has no offer with this offerent');\n      } else {\n        revert('You are allowed to change only your auctions');\n      }\n    }\n    revert('There is no auction with this id');\n  }\n\n  function makeOffer(\n    uint256 auction_id,\n    string memory auction_name,\n    uint256 price\n  ) public {\n    require(\n      bytes(offerents[msg.sender].offerent_name).length != 0,\n      'You are not registered as an offerent'\n    );\n    if (strcmp(auctions[auction_id].auction_name, auction_name)) {\n      Offer memory newOffer = Offer(msg.sender, price);\n      auctions[auction_id].offers[auctions[auction_id].offersCounter] = newOffer;\n      auctions[auction_id].offersCounter++;\n      return;\n    }\n    revert('There is no auction with this id');\n  }\n\n  /*\n    function getAuctionOffers(string memory auctionName) public view returns(Offer[] memory) {\n        require(auctionsCounter > 0, \"There is no auction\");\n        for (uint256 i = 0; i < auctionsCounter; i++) {\n            if (strcmp(auctions[i].auction_name, auctionName)) {\n                Offer[] memory newOffers = new Offer[](auctions[i].offersCounter);\n                for (uint j = 0; j < auctions[i].offersCounter; j++) {\n                    newOffers[j] = auctions[i].offers[j];\n                }\n                return newOffers;\n            }\n        }\n        revert(\"There is no auction with this name\");\n    }*/\n  // Something else\n  function getAuctionStatus(uint256 auction_id, string memory auction_name)\n    public\n    view\n    returns (string memory)\n  {\n    if (strcmp(auctions[auction_id].auction_name, auction_name)) {\n      return auctions[auction_id].status;\n    }\n    revert('There is no auction with this id');\n  }\n\n  function getAuctionWinner(uint256 auction_id, string memory auction_name)\n    public\n    view\n    returns (address)\n  {\n    if (strcmp(auctions[auction_id].auction_name, auction_name)) {\n      if (auctions[auction_id].id_winner >= 0) {\n        return auctions[auction_id].offers[uint256(auctions[auction_id].id_winner)].offerent_addr;\n      } else {\n        revert('This auction has no winner');\n      }\n    }\n    revert('There is no auction with this id');\n  }\n\n  function memcmp(bytes memory a, bytes memory b) internal pure returns (bool) {\n    return (a.length == b.length) && (keccak256(a) == keccak256(b));\n  }\n\n  function strcmp(string memory a, string memory b) internal pure returns (bool) {\n    return memcmp(bytes(a), bytes(b));\n  }\n}\n",
  "sourcePath": "/home/Marek/Studies/Inzynierka/fds-frontend/contracts/Auctions.sol",
  "compiler": {
    "name": "solc",
    "version": "0.5.16+commit.9c3226ce.Emscripten.clang"
  },
  "schemaVersion": "3.4.10",
  "updatedAt": "2022-10-06T18:13:21.496Z",
  "networkType": "ethereum",
  "devdoc": {
    "methods": {}
  },
  "userdoc": {
    "methods": {}
  }
}