{
  "contractName": "Auctions",
  "abi": [
    {
      "inputs": [],
      "payable": false,
      "stateMutability": "nonpayable",
      "type": "constructor"
    },
    {
      "constant": true,
      "inputs": [
        {
          "internalType": "address",
          "name": "",
          "type": "address"
        }
      ],
      "name": "advertisers",
      "outputs": [
        {
          "internalType": "string",
          "name": "advertiser_name",
          "type": "string"
        },
        {
          "internalType": "string",
          "name": "city",
          "type": "string"
        }
      ],
      "payable": false,
      "stateMutability": "view",
      "type": "function"
    },
    {
      "constant": true,
      "inputs": [],
      "name": "auctionCounter",
      "outputs": [
        {
          "internalType": "uint256",
          "name": "",
          "type": "uint256"
        }
      ],
      "payable": false,
      "stateMutability": "view",
      "type": "function"
    },
    {
      "constant": true,
      "inputs": [
        {
          "internalType": "uint256",
          "name": "",
          "type": "uint256"
        }
      ],
      "name": "auctions",
      "outputs": [
        {
          "internalType": "string",
          "name": "auction_name",
          "type": "string"
        },
        {
          "internalType": "address",
          "name": "advertiser_addr",
          "type": "address"
        },
        {
          "internalType": "uint256",
          "name": "start_date",
          "type": "uint256"
        },
        {
          "internalType": "uint256",
          "name": "end_date",
          "type": "uint256"
        },
        {
          "internalType": "string",
          "name": "status",
          "type": "string"
        },
        {
          "internalType": "int256",
          "name": "id_winner",
          "type": "int256"
        },
        {
          "internalType": "uint256",
          "name": "offersCounter",
          "type": "uint256"
        }
      ],
      "payable": false,
      "stateMutability": "view",
      "type": "function"
    },
    {
      "constant": true,
      "inputs": [
        {
          "internalType": "address",
          "name": "",
          "type": "address"
        }
      ],
      "name": "offerents",
      "outputs": [
        {
          "internalType": "string",
          "name": "offerent_name",
          "type": "string"
        },
        {
          "internalType": "uint256",
          "name": "NIP",
          "type": "uint256"
        },
        {
          "internalType": "string",
          "name": "owner",
          "type": "string"
        }
      ],
      "payable": false,
      "stateMutability": "view",
      "type": "function"
    },
    {
      "constant": true,
      "inputs": [],
      "name": "getAuctionCounter",
      "outputs": [
        {
          "internalType": "uint256",
          "name": "retVal",
          "type": "uint256"
        }
      ],
      "payable": false,
      "stateMutability": "view",
      "type": "function"
    },
    {
      "constant": false,
      "inputs": [
        {
          "internalType": "string",
          "name": "name",
          "type": "string"
        },
        {
          "internalType": "string",
          "name": "city",
          "type": "string"
        }
      ],
      "name": "registerAdvertiser",
      "outputs": [],
      "payable": false,
      "stateMutability": "nonpayable",
      "type": "function"
    },
    {
      "constant": false,
      "inputs": [
        {
          "internalType": "string",
          "name": "name",
          "type": "string"
        },
        {
          "internalType": "uint256",
          "name": "NIP",
          "type": "uint256"
        },
        {
          "internalType": "string",
          "name": "owner",
          "type": "string"
        }
      ],
      "name": "registerOfferent",
      "outputs": [],
      "payable": false,
      "stateMutability": "nonpayable",
      "type": "function"
    },
    {
      "constant": false,
      "inputs": [
        {
          "internalType": "string",
          "name": "name",
          "type": "string"
        },
        {
          "internalType": "uint256",
          "name": "startDate",
          "type": "uint256"
        },
        {
          "internalType": "uint256",
          "name": "endDate",
          "type": "uint256"
        }
      ],
      "name": "createAuction",
      "outputs": [],
      "payable": false,
      "stateMutability": "nonpayable",
      "type": "function"
    },
    {
      "constant": false,
      "inputs": [
        {
          "internalType": "string",
          "name": "auction_name",
          "type": "string"
        },
        {
          "internalType": "string",
          "name": "status",
          "type": "string"
        }
      ],
      "name": "setAuctionStatus",
      "outputs": [],
      "payable": false,
      "stateMutability": "nonpayable",
      "type": "function"
    },
    {
      "constant": false,
      "inputs": [
        {
          "internalType": "string",
          "name": "auction_name",
          "type": "string"
        },
        {
          "internalType": "address",
          "name": "winnerAddr",
          "type": "address"
        }
      ],
      "name": "setAuctionWinner",
      "outputs": [],
      "payable": false,
      "stateMutability": "nonpayable",
      "type": "function"
    },
    {
      "constant": false,
      "inputs": [
        {
          "internalType": "string",
          "name": "auction_name",
          "type": "string"
        },
        {
          "internalType": "uint256",
          "name": "price",
          "type": "uint256"
        }
      ],
      "name": "makeOffer",
      "outputs": [],
      "payable": false,
      "stateMutability": "nonpayable",
      "type": "function"
    },
    {
      "constant": true,
      "inputs": [
        {
          "internalType": "string",
          "name": "auctionName",
          "type": "string"
        }
      ],
      "name": "getAuctionOffers",
      "outputs": [
        {
          "components": [
            {
              "internalType": "address",
              "name": "offerent_addr",
              "type": "address"
            },
            {
              "internalType": "uint256",
              "name": "price",
              "type": "uint256"
            }
          ],
          "internalType": "struct Auctions.Offer[]",
          "name": "",
          "type": "tuple[]"
        }
      ],
      "payable": false,
      "stateMutability": "view",
      "type": "function"
    },
    {
      "constant": true,
      "inputs": [
        {
          "internalType": "string",
          "name": "auctionName",
          "type": "string"
        }
      ],
      "name": "getAuctionStatus",
      "outputs": [
        {
          "internalType": "string",
          "name": "",
          "type": "string"
        }
      ],
      "payable": false,
      "stateMutability": "view",
      "type": "function"
    },
    {
      "constant": true,
      "inputs": [
        {
          "internalType": "string",
          "name": "auctionName",
          "type": "string"
        }
      ],
      "name": "getAuctionWinner",
      "outputs": [
        {
          "internalType": "address",
          "name": "",
          "type": "address"
        }
      ],
      "payable": false,
      "stateMutability": "view",
      "type": "function"
    }
  ],
  "bytecode": "0x608060405234801561001057600080fd5b506000600381905550612e28806100286000396000f3fe608060405234801561001057600080fd5b50600436106100ea5760003560e01c80635c40746f1161008c578063a7e7664411610066578063a7e7664414610274578063ab0f425614610292578063fa3ea653146102ae578063fe5e3d13146102ca576100ea565b80635c40746f1461022057806387efb1ef1461023c5780639d50345e14610258576100ea565b80632dbddb41116100c85780632dbddb411461016d578063469938cd14610189578063571a26a0146101b95780635b801007146101ef576100ea565b80630bbba248146100ef5780631beff3111461010d5780632402c8e61461013d575b600080fd5b6100f76102fc565b6040516101049190612c4a565b60405180910390f35b610127600480360361012291908101906120bc565b610306565b604051610134919061296f565b60405180910390f35b610157600480360361015291908101906120bc565b61051f565b604051610164919061294d565b60405180910390f35b61018760048036036101829190810190612290565b6107bb565b005b6101a3600480360361019e91908101906120bc565b6109fc565b6040516101b09190612932565b60405180910390f35b6101d360048036036101ce91908101906122f7565b610c1f565b6040516101e69796959493929190612991565b60405180910390f35b61020960048036036102049190810190612093565b610db1565b604051610217929190612a0e565b60405180910390f35b61023a60048036036102359190810190612211565b610f05565b005b610256600480360361025191908101906121bd565b611132565b005b610272600480360361026d9190810190612151565b61141f565b005b61027c6115e1565b6040516102899190612c4a565b60405180910390f35b6102ac60048036036102a791908101906120fd565b6115e7565b005b6102c860048036036102c39190810190612151565b6119f1565b005b6102e460048036036102df9190810190612093565b611cbf565b6040516102f393929190612a45565b60405180910390f35b6000600354905090565b606060006003541161034d576040517f08c379a000000000000000000000000000000000000000000000000000000000815260040161034490612b0a565b60405180910390fd5b60008090505b6003548110156104de57610415600260008381526020019081526020016000206000018054600181600116156101000203166002900480601f01602080910402602001604051908101604052809291908181526020018280546001816001161561010002031660029004801561040a5780601f106103df5761010080835404028352916020019161040a565b820191906000526020600020905b8154815290600101906020018083116103ed57829003601f168201915b505050505084611e19565b156104d157600260008281526020019081526020016000206004018054600181600116156101000203166002900480601f0160208091040260200160405190810160405280929190818152602001828054600181600116156101000203166002900480156104c45780601f10610499576101008083540402835291602001916104c4565b820191906000526020600020905b8154815290600101906020018083116104a757829003601f168201915b505050505091505061051a565b8080600101915050610353565b506040517f08c379a000000000000000000000000000000000000000000000000000000000815260040161051190612aca565b60405180910390fd5b919050565b6060600060035411610566576040517f08c379a000000000000000000000000000000000000000000000000000000000815260040161055d90612b0a565b60405180910390fd5b60008090505b60035481101561077a5761062e600260008381526020019081526020016000206000018054600181600116156101000203166002900480601f0160208091040260200160405190810160405280929190818152602001828054600181600116156101000203166002900480156106235780601f106105f857610100808354040283529160200191610623565b820191906000526020600020905b81548152906001019060200180831161060657829003601f168201915b505050505084611e19565b1561076d576060600260008381526020019081526020016000206006015460405190808252806020026020018201604052801561068557816020015b610672611e55565b81526020019060019003908161066a5790505b50905060008090505b6002600084815260200190815260200160002060060154811015610762576002600084815260200190815260200160002060070160008281526020019081526020016000206040518060400160405290816000820160009054906101000a900473ffffffffffffffffffffffffffffffffffffffff1673ffffffffffffffffffffffffffffffffffffffff1673ffffffffffffffffffffffffffffffffffffffff16815260200160018201548152505082828151811061074a57fe5b6020026020010181905250808060010191505061068e565b5080925050506107b6565b808060010191505061056c565b506040517f08c379a00000000000000000000000000000000000000000000000000000000081526004016107ad90612aca565b60405180910390fd5b919050565b60008060003373ffffffffffffffffffffffffffffffffffffffff1673ffffffffffffffffffffffffffffffffffffffff1681526020019081526020016000206000018054600181600116156101000203166002900490501415610854576040517f08c379a000000000000000000000000000000000000000000000000000000000815260040161084b90612c0a565b60405180910390fd5b600083511415610899576040517f08c379a000000000000000000000000000000000000000000000000000000000815260040161089090612baa565b60405180910390fd5b808211156108dc576040517f08c379a00000000000000000000000000000000000000000000000000000000081526004016108d390612b4a565b60405180910390fd5b600060026000600354815260200190815260200160002090508381600001908051906020019061090d929190611e85565b50338160010160006101000a81548173ffffffffffffffffffffffffffffffffffffffff021916908373ffffffffffffffffffffffffffffffffffffffff1602179055508281600201819055508181600301819055506040518060400160405280600481526020017f6f70656e000000000000000000000000000000000000000000000000000000008152508160040190805190602001906109b0929190611e85565b507fffffffffffffffffffffffffffffffffffffffffffffffffffffffffffffffff81600501819055506000816006018190555060036000815480929190600101919050555050505050565b60008060035411610a42576040517f08c379a0000000000000000000000000000000000000000000000000000000008152600401610a3990612b0a565b60405180910390fd5b60008090505b600354811015610bde57610b0a600260008381526020019081526020016000206000018054600181600116156101000203166002900480601f016020809104026020016040519081016040528092919081815260200182805460018160011615610100020316600290048015610aff5780601f10610ad457610100808354040283529160200191610aff565b820191906000526020600020905b815481529060010190602001808311610ae257829003601f168201915b505050505084611e19565b15610bd1576000600260008381526020019081526020016000206005015412610b96576002600082815260200190815260200160002060070160006002600084815260200190815260200160002060050154815260200190815260200160002060000160009054906101000a900473ffffffffffffffffffffffffffffffffffffffff16915050610c1a565b6040517f08c379a0000000000000000000000000000000000000000000000000000000008152600401610bc890612b8a565b60405180910390fd5b8080600101915050610a48565b506040517f08c379a0000000000000000000000000000000000000000000000000000000008152600401610c1190612aca565b60405180910390fd5b919050565b6002602052806000526040600020600091509050806000018054600181600116156101000203166002900480601f016020809104026020016040519081016040528092919081815260200182805460018160011615610100020316600290048015610ccb5780601f10610ca057610100808354040283529160200191610ccb565b820191906000526020600020905b815481529060010190602001808311610cae57829003601f168201915b5050505050908060010160009054906101000a900473ffffffffffffffffffffffffffffffffffffffff1690806002015490806003015490806004018054600181600116156101000203166002900480601f016020809104026020016040519081016040528092919081815260200182805460018160011615610100020316600290048015610d9b5780601f10610d7057610100808354040283529160200191610d9b565b820191906000526020600020905b815481529060010190602001808311610d7e57829003601f168201915b5050505050908060050154908060060154905087565b6000602052806000526040600020600091509050806000018054600181600116156101000203166002900480601f016020809104026020016040519081016040528092919081815260200182805460018160011615610100020316600290048015610e5d5780601f10610e3257610100808354040283529160200191610e5d565b820191906000526020600020905b815481529060010190602001808311610e4057829003601f168201915b505050505090806001018054600181600116156101000203166002900480601f016020809104026020016040519081016040528092919081815260200182805460018160011615610100020316600290048015610efb5780601f10610ed057610100808354040283529160200191610efb565b820191906000526020600020905b815481529060010190602001808311610ede57829003601f168201915b5050505050905082565b600083511415610f4a576040517f08c379a0000000000000000000000000000000000000000000000000000000008152600401610f4190612baa565b60405180910390fd5b600081511415610f8f576040517f08c379a0000000000000000000000000000000000000000000000000000000008152600401610f8690612bea565b60405180910390fd5b633b9aca008210158015610fa857506402540be3ff8211155b610fe7576040517f08c379a0000000000000000000000000000000000000000000000000000000008152600401610fde90612aaa565b60405180910390fd5b6000600160003373ffffffffffffffffffffffffffffffffffffffff1673ffffffffffffffffffffffffffffffffffffffff16815260200190815260200160002060000180546001816001161561010002031660029004905014611080576040517f08c379a000000000000000000000000000000000000000000000000000000000815260040161107790612c2a565b60405180910390fd5b611088611f05565b604051806060016040528085815260200184815260200183815250905080600160003373ffffffffffffffffffffffffffffffffffffffff1673ffffffffffffffffffffffffffffffffffffffff1681526020019081526020016000206000820151816000019080519060200190611101929190611f26565b50602082015181600101556040820151816002019080519060200190611128929190611f26565b5090505050505050565b6000600160003373ffffffffffffffffffffffffffffffffffffffff1673ffffffffffffffffffffffffffffffffffffffff16815260200190815260200160002060000180546001816001161561010002031660029004905014156111cc576040517f08c379a00000000000000000000000000000000000000000000000000000000081526004016111c390612aea565b60405180910390fd5b600060035411611211576040517f08c379a000000000000000000000000000000000000000000000000000000000815260040161120890612b0a565b60405180910390fd5b60008090505b6003548110156113df576112d9600260008381526020019081526020016000206000018054600181600116156101000203166002900480601f0160208091040260200160405190810160405280929190818152602001828054600181600116156101000203166002900480156112ce5780601f106112a3576101008083540402835291602001916112ce565b820191906000526020600020905b8154815290600101906020018083116112b157829003601f168201915b505050505084611e19565b156113d2576112e6611fa6565b60405180604001604052803373ffffffffffffffffffffffffffffffffffffffff168152602001848152509050806002600084815260200190815260200160002060070160006002600086815260200190815260200160002060060154815260200190815260200160002060008201518160000160006101000a81548173ffffffffffffffffffffffffffffffffffffffff021916908373ffffffffffffffffffffffffffffffffffffffff160217905550602082015181600101559050506002600083815260200190815260200160002060060160008154809291906001019190505550505061141b565b8080600101915050611217565b506040517f08c379a000000000000000000000000000000000000000000000000000000000815260040161141290612aca565b60405180910390fd5b5050565b600082511415611464576040517f08c379a000000000000000000000000000000000000000000000000000000000815260040161145b90612baa565b60405180910390fd5b6000815114156114a9576040517f08c379a00000000000000000000000000000000000000000000000000000000081526004016114a090612b2a565b60405180910390fd5b60008060003373ffffffffffffffffffffffffffffffffffffffff1673ffffffffffffffffffffffffffffffffffffffff16815260200190815260200160002060000180546001816001161561010002031660029004905014611541576040517f08c379a000000000000000000000000000000000000000000000000000000000815260040161153890612a8a565b60405180910390fd5b611549611fd6565b6040518060400160405280848152602001838152509050806000803373ffffffffffffffffffffffffffffffffffffffff1673ffffffffffffffffffffffffffffffffffffffff16815260200190815260200160002060008201518160000190805190602001906115bb929190611f26565b5060208201518160010190805190602001906115d8929190611f26565b50905050505050565b60035481565b60008060003373ffffffffffffffffffffffffffffffffffffffff1673ffffffffffffffffffffffffffffffffffffffff1681526020019081526020016000206000018054600181600116156101000203166002900490501415611680576040517f08c379a000000000000000000000000000000000000000000000000000000000815260040161167790612c0a565b60405180910390fd5b6000600354116116c5576040517f08c379a00000000000000000000000000000000000000000000000000000000081526004016116bc90612b0a565b60405180910390fd5b60008090505b6003548110156119b15761178d600260008381526020019081526020016000206000018054600181600116156101000203166002900480601f0160208091040260200160405190810160405280929190818152602001828054600181600116156101000203166002900480156117825780601f1061175757610100808354040283529160200191611782565b820191906000526020600020905b81548152906001019060200180831161176557829003601f168201915b505050505084611e19565b156119a4573373ffffffffffffffffffffffffffffffffffffffff166002600083815260200190815260200160002060010160009054906101000a900473ffffffffffffffffffffffffffffffffffffffff1673ffffffffffffffffffffffffffffffffffffffff1614156119695760008090505b600260008381526020019081526020016000206006015481101561192d578273ffffffffffffffffffffffffffffffffffffffff1660026000848152602001908152602001600020600701600083815260200190815260200160002060000160009054906101000a900473ffffffffffffffffffffffffffffffffffffffff1673ffffffffffffffffffffffffffffffffffffffff161415611920578060026000848152602001908152602001600020600501819055506040518060400160405280600781526020017f736574746c656400000000000000000000000000000000000000000000000000815250600260008481526020019081526020016000206004019080519060200190611918929190611e85565b5050506119ed565b8080600101915050611802565b506040517f08c379a000000000000000000000000000000000000000000000000000000000815260040161196090612bca565b60405180910390fd5b6040517f08c379a000000000000000000000000000000000000000000000000000000000815260040161199b90612b6a565b60405180910390fd5b80806001019150506116cb565b506040517f08c379a00000000000000000000000000000000000000000000000000000000081526004016119e490612aca565b60405180910390fd5b5050565b60008060003373ffffffffffffffffffffffffffffffffffffffff1673ffffffffffffffffffffffffffffffffffffffff1681526020019081526020016000206000018054600181600116156101000203166002900490501415611a8a576040517f08c379a0000000000000000000000000000000000000000000000000000000008152600401611a8190612c0a565b60405180910390fd5b600060035411611acf576040517f08c379a0000000000000000000000000000000000000000000000000000000008152600401611ac690612b0a565b60405180910390fd5b60008090505b600354811015611c7f57611b97600260008381526020019081526020016000206000018054600181600116156101000203166002900480601f016020809104026020016040519081016040528092919081815260200182805460018160011615610100020316600290048015611b8c5780601f10611b6157610100808354040283529160200191611b8c565b820191906000526020600020905b815481529060010190602001808311611b6f57829003601f168201915b505050505084611e19565b15611c72573373ffffffffffffffffffffffffffffffffffffffff166002600083815260200190815260200160002060010160009054906101000a900473ffffffffffffffffffffffffffffffffffffffff1673ffffffffffffffffffffffffffffffffffffffff161415611c375781600260008381526020019081526020016000206004019080519060200190611c30929190611e85565b5050611cbb565b6040517f08c379a0000000000000000000000000000000000000000000000000000000008152600401611c6990612b6a565b60405180910390fd5b8080600101915050611ad5565b506040517f08c379a0000000000000000000000000000000000000000000000000000000008152600401611cb290612aca565b60405180910390fd5b5050565b6001602052806000526040600020600091509050806000018054600181600116156101000203166002900480601f016020809104026020016040519081016040528092919081815260200182805460018160011615610100020316600290048015611d6b5780601f10611d4057610100808354040283529160200191611d6b565b820191906000526020600020905b815481529060010190602001808311611d4e57829003601f168201915b505050505090806001015490806002018054600181600116156101000203166002900480601f016020809104026020016040519081016040528092919081815260200182805460018160011615610100020316600290048015611e0f5780601f10611de457610100808354040283529160200191611e0f565b820191906000526020600020905b815481529060010190602001808311611df257829003601f168201915b5050505050905083565b6000611e258383611e2d565b905092915050565b600081518351148015611e4d575081805190602001208380519060200120145b905092915050565b6040518060400160405280600073ffffffffffffffffffffffffffffffffffffffff168152602001600081525090565b828054600181600116156101000203166002900490600052602060002090601f016020900481019282601f10611ec657805160ff1916838001178555611ef4565b82800160010185558215611ef4579182015b82811115611ef3578251825591602001919060010190611ed8565b5b509050611f019190611ff0565b5090565b60405180606001604052806060815260200160008152602001606081525090565b828054600181600116156101000203166002900490600052602060002090601f016020900481019282601f10611f6757805160ff1916838001178555611f95565b82800160010185558215611f95579182015b82811115611f94578251825591602001919060010190611f79565b5b509050611fa29190611ff0565b5090565b6040518060400160405280600073ffffffffffffffffffffffffffffffffffffffff168152602001600081525090565b604051806040016040528060608152602001606081525090565b61201291905b8082111561200e576000816000905550600101611ff6565b5090565b90565b60008135905061202481612db7565b92915050565b600082601f83011261203b57600080fd5b813561204e61204982612c92565b612c65565b9150808252602083016020830185838301111561206a57600080fd5b612075838284612d64565b50505092915050565b60008135905061208d81612dce565b92915050565b6000602082840312156120a557600080fd5b60006120b384828501612015565b91505092915050565b6000602082840312156120ce57600080fd5b600082013567ffffffffffffffff8111156120e857600080fd5b6120f48482850161202a565b91505092915050565b6000806040838503121561211057600080fd5b600083013567ffffffffffffffff81111561212a57600080fd5b6121368582860161202a565b925050602061214785828601612015565b9150509250929050565b6000806040838503121561216457600080fd5b600083013567ffffffffffffffff81111561217e57600080fd5b61218a8582860161202a565b925050602083013567ffffffffffffffff8111156121a757600080fd5b6121b38582860161202a565b9150509250929050565b600080604083850312156121d057600080fd5b600083013567ffffffffffffffff8111156121ea57600080fd5b6121f68582860161202a565b92505060206122078582860161207e565b9150509250929050565b60008060006060848603121561222657600080fd5b600084013567ffffffffffffffff81111561224057600080fd5b61224c8682870161202a565b935050602061225d8682870161207e565b925050604084013567ffffffffffffffff81111561227a57600080fd5b6122868682870161202a565b9150509250925092565b6000806000606084860312156122a557600080fd5b600084013567ffffffffffffffff8111156122bf57600080fd5b6122cb8682870161202a565b93505060206122dc8682870161207e565b92505060406122ed8682870161207e565b9150509250925092565b60006020828403121561230957600080fd5b60006123178482850161207e565b91505092915050565b600061232c83836128e5565b60408301905092915050565b61234181612d1e565b82525050565b61235081612d1e565b82525050565b600061236182612cce565b61236b8185612cfc565b935061237683612cbe565b8060005b838110156123a757815161238e8882612320565b975061239983612cef565b92505060018101905061237a565b5085935050505092915050565b6123bd81612d30565b82525050565b60006123ce82612ce4565b6123d88185612d0d565b93506123e8818560208601612d73565b6123f181612da6565b840191505092915050565b600061240782612cd9565b6124118185612d0d565b9350612421818560208601612d73565b61242a81612da6565b840191505092915050565b6000612442603283612d0d565b91507f4164766572746973657220776974682074686973206163636f756e742069732060008301527f616c7265616479207265676973746572656400000000000000000000000000006020830152604082019050919050565b60006124a8601c83612d0d565b91507f4e49502068617320746f20626520313020646967697473206c6f6e67000000006000830152602082019050919050565b60006124e8602283612d0d565b91507f5468657265206973206e6f2061756374696f6e20776974682074686973206e6160008301527f6d650000000000000000000000000000000000000000000000000000000000006020830152604082019050919050565b600061254e602583612d0d565b91507f596f7520617265206e6f74207265676973746572656420617320616e206f666660008301527f6572656e740000000000000000000000000000000000000000000000000000006020830152604082019050919050565b60006125b4601383612d0d565b91507f5468657265206973206e6f2061756374696f6e000000000000000000000000006000830152602082019050919050565b60006125f4601783612d0d565b91507f436974792068617320746f2062652070726f76696465640000000000000000006000830152602082019050919050565b6000612634602683612d0d565b91507f456e642064617465206d757374206265206c61746572207468616e207374617260008301527f74206461746500000000000000000000000000000000000000000000000000006020830152604082019050919050565b600061269a602c83612d0d565b91507f596f752061726520616c6c6f77656420746f206368616e6765206f6e6c79207960008301527f6f75722061756374696f6e7300000000000000000000000000000000000000006020830152604082019050919050565b6000612700601a83612d0d565b91507f546869732061756374696f6e20686173206e6f2077696e6e65720000000000006000830152602082019050919050565b6000612740601783612d0d565b91507f4e616d652068617320746f2062652070726f76696465640000000000000000006000830152602082019050919050565b6000612780602783612d0d565b91507f41756374696f6e20686173206e6f206f6666657220776974682074686973206f60008301527f66666572656e74000000000000000000000000000000000000000000000000006020830152604082019050919050565b60006127e6601883612d0d565b91507f4f776e65722068617320746f2062652070726f766964656400000000000000006000830152602082019050919050565b6000612826602783612d0d565b91507f596f7520617265206e6f74207265676973746572656420617320616e2061647660008301527f65727469736572000000000000000000000000000000000000000000000000006020830152604082019050919050565b600061288c603083612d0d565b91507f4f66666572656e7420776974682074686973206163636f756e7420697320616c60008301527f72656164792072656769737465726564000000000000000000000000000000006020830152604082019050919050565b6040820160008201516128fb6000850182612338565b50602082015161290e6020850182612914565b50505050565b61291d81612d5a565b82525050565b61292c81612d5a565b82525050565b60006020820190506129476000830184612347565b92915050565b600060208201905081810360008301526129678184612356565b905092915050565b6000602082019050818103600083015261298981846123c3565b905092915050565b600060e08201905081810360008301526129ab818a6123fc565b90506129ba6020830189612347565b6129c76040830188612923565b6129d46060830187612923565b81810360808301526129e681866123fc565b90506129f560a08301856123b4565b612a0260c0830184612923565b98975050505050505050565b60006040820190508181036000830152612a2881856123fc565b90508181036020830152612a3c81846123fc565b90509392505050565b60006060820190508181036000830152612a5f81866123fc565b9050612a6e6020830185612923565b8181036040830152612a8081846123fc565b9050949350505050565b60006020820190508181036000830152612aa381612435565b9050919050565b60006020820190508181036000830152612ac38161249b565b9050919050565b60006020820190508181036000830152612ae3816124db565b9050919050565b60006020820190508181036000830152612b0381612541565b9050919050565b60006020820190508181036000830152612b23816125a7565b9050919050565b60006020820190508181036000830152612b43816125e7565b9050919050565b60006020820190508181036000830152612b6381612627565b9050919050565b60006020820190508181036000830152612b838161268d565b9050919050565b60006020820190508181036000830152612ba3816126f3565b9050919050565b60006020820190508181036000830152612bc381612733565b9050919050565b60006020820190508181036000830152612be381612773565b9050919050565b60006020820190508181036000830152612c03816127d9565b9050919050565b60006020820190508181036000830152612c2381612819565b9050919050565b60006020820190508181036000830152612c438161287f565b9050919050565b6000602082019050612c5f6000830184612923565b92915050565b6000604051905081810181811067ffffffffffffffff82111715612c8857600080fd5b8060405250919050565b600067ffffffffffffffff821115612ca957600080fd5b601f19601f8301169050602081019050919050565b6000819050602082019050919050565b600081519050919050565b600081519050919050565b600081519050919050565b6000602082019050919050565b600082825260208201905092915050565b600082825260208201905092915050565b6000612d2982612d3a565b9050919050565b6000819050919050565b600073ffffffffffffffffffffffffffffffffffffffff82169050919050565b6000819050919050565b82818337600083830152505050565b60005b83811015612d91578082015181840152602081019050612d76565b83811115612da0576000848401525b50505050565b6000601f19601f8301169050919050565b612dc081612d1e565b8114612dcb57600080fd5b50565b612dd781612d5a565b8114612de257600080fd5b5056fea365627a7a72315820bd85faeaf4c57301cb02ba24e5ee69a03486828cab979f17f0f470f26f35b14d6c6578706572696d656e74616cf564736f6c63430005100040",
  "source": "pragma solidity   >=0.4.22 <0.8.0;\r\npragma experimental ABIEncoderV2;\r\n\r\ncontract Auctions {\r\n\r\n    struct Auction {\r\n        string auction_name; \r\n        address advertiser_addr; \r\n        uint start_date; \r\n        uint end_date;\r\n        string status;\r\n        int id_winner;\r\n        uint offersCounter; \r\n        mapping(uint => Offer) offers; \r\n        //Offer[] offers;\r\n    }\r\n\r\n\r\n    struct Advertiser {\r\n        string advertiser_name;\r\n        string city;\r\n    }\r\n\r\n    struct Offerent {\r\n        string offerent_name;\r\n        uint NIP;\r\n        string owner; // in offerents or diff place?\r\n    }\r\n    \r\n     struct Offer {\r\n        address offerent_addr;\r\n        uint price; // price in gr, no float type\r\n    }\r\n\r\n\r\n    mapping(address => Advertiser) public advertisers;\r\n    mapping(address => Offerent) public offerents;\r\n\r\n    mapping(uint => Auction) public auctions;\r\n    uint public auctionCounter;\r\n\r\n    constructor() public{\r\n        auctionCounter = 0;\r\n    }\r\n\r\n    //add should be changed to msg.sender ! \r\n\r\n    function getAuctionCounter() public view returns (uint retVal) {\r\n        return auctionCounter;\r\n    }\r\n\r\n    //should be called each time an advertiser creates account\r\n    function registerAdvertiser(string memory name, string memory city) public {\r\n        require(bytes(name).length != 0, \"Name has to be provided\");\r\n        require(bytes(city).length != 0, \"City has to be provided\");\r\n        require(bytes(advertisers[msg.sender].advertiser_name).length == 0, \"Advertiser with this account is already registered\");\r\n        Advertiser memory newAdvertiser = Advertiser(name, city);\r\n        advertisers[msg.sender] = newAdvertiser;\r\n    }\r\n\r\n    //should be called each time an offerent creates account\r\n    function registerOfferent(string memory name, uint NIP, string memory owner) public {\r\n        require(bytes(name).length != 0, \"Name has to be provided\");\r\n        require(bytes(owner).length != 0, \"Owner has to be provided\");\r\n        require(NIP >= 1000000000 && NIP <= 9999999999, \"NIP has to be 10 digits long\"); //easiest way to require 10 digits\r\n        require(bytes(offerents[msg.sender].offerent_name).length == 0, \"Offerent with this account is already registered\");\r\n        Offerent memory newOfferent = Offerent(name, NIP, owner);\r\n        offerents[msg.sender] = newOfferent;\r\n    }\r\n\r\n    function createAuction(string memory name, uint startDate, uint endDate) public {\r\n        require(bytes(advertisers[msg.sender].advertiser_name).length != 0, \"You are not registered as an advertiser\"); // advertiser exists\r\n        require(bytes(name).length != 0, \"Name has to be provided\");\r\n        require(startDate <= endDate, \"End date must be later than start date\");\r\n        Auction storage auction = auctions[auctionCounter];\r\n        auction.auction_name = name;\r\n        auction.advertiser_addr = msg.sender;\r\n        auction.start_date = startDate;\r\n        auction.end_date = endDate;\r\n        auction.status = \"open\";\r\n        auction.id_winner = -1;\r\n        auction.offersCounter = 0;\r\n        auctionCounter++;\r\n    }\r\n\r\n    function setAuctionStatus(string memory auction_name, string memory status) public {\r\n        require(bytes(advertisers[msg.sender].advertiser_name).length != 0, \"You are not registered as an advertiser\"); \r\n        require(auctionCounter > 0, \"There is no auction\");\r\n        for (uint256 i = 0; i < auctionCounter; i++) {\r\n            if (strcmp(auctions[i].auction_name, auction_name)) {\r\n                if(auctions[i].advertiser_addr == msg.sender) {\r\n                    auctions[i].status = status;\r\n                    return;\r\n                }\r\n                else {\r\n                    revert(\"You are allowed to change only your auctions\"); \r\n                }\r\n            }\r\n        }\r\n        revert(\"There is no auction with this name\");\r\n    }\r\n\r\n    function setAuctionWinner(string memory auction_name, address winnerAddr) public {\r\n        require(bytes(advertisers[msg.sender].advertiser_name).length != 0, \"You are not registered as an advertiser\");\r\n        require(auctionCounter > 0, \"There is no auction\");\r\n        for (uint256 i = 0; i < auctionCounter; i++) {\r\n            if (strcmp(auctions[i].auction_name, auction_name)) {\r\n                if(auctions[i].advertiser_addr == msg.sender) {\r\n                    for (uint256 j = 0; j < auctions[i].offersCounter; j++)\r\n                    {\r\n                        if(auctions[i].offers[j].offerent_addr == winnerAddr)\r\n                        {\r\n                            auctions[i].id_winner = int(j);\r\n                            auctions[i].status = \"settled\"; //rozstrzygnite\r\n                            return;\r\n                        }\r\n                    }\r\n                    revert(\"Auction has no offer with this offerent\");\r\n                }\r\n                else {\r\n                    revert(\"You are allowed to change only your auctions\"); \r\n                }\r\n            }\r\n        }\r\n        revert(\"There is no auction with this name\");\r\n    }\r\n\r\n    function makeOffer(string memory auction_name, uint price) public{\r\n        require(bytes(offerents[msg.sender].offerent_name).length != 0, \"You are not registered as an offerent\");\r\n        require(auctionCounter > 0, \"There is no auction\");\r\n        for (uint256 i = 0; i < auctionCounter; i++) {\r\n            if (strcmp(auctions[i].auction_name, auction_name)) {\r\n                Offer memory newOffer = Offer(msg.sender, price);\r\n                auctions[i].offers[auctions[i].offersCounter] = newOffer;\r\n                auctions[i].offersCounter++;\r\n                return;\r\n            }\r\n        }\r\n        revert(\"There is no auction with this name\");\r\n    }\r\n\r\n\r\n    function getAuctionOffers(string memory auctionName) public view returns(Offer[] memory) {\r\n        require(auctionCounter > 0, \"There is no auction\");\r\n        for (uint256 i = 0; i < auctionCounter; i++) {\r\n            if (strcmp(auctions[i].auction_name, auctionName)) {\r\n                Offer[] memory newOffers = new Offer[](auctions[i].offersCounter);\r\n                for (uint j = 0; j < auctions[i].offersCounter; j++) {\r\n                    newOffers[j] = auctions[i].offers[j];\r\n                }\r\n                return newOffers;\r\n            }\r\n        }\r\n        revert(\"There is no auction with this name\");\r\n    }\r\n\r\n    function getAuctionStatus(string memory auctionName) public view returns (string memory){\r\n        require(auctionCounter > 0, \"There is no auction\");\r\n        for (uint256 i = 0; i < auctionCounter; i++) {\r\n            if (strcmp(auctions[i].auction_name, auctionName)) {\r\n                return auctions[i].status;\r\n            }\r\n        }\r\n        revert(\"There is no auction with this name\");\r\n    }\r\n\r\n    function getAuctionWinner(string memory auctionName) public view returns(address){\r\n        require(auctionCounter > 0, \"There is no auction\");\r\n        for (uint256 i = 0; i < auctionCounter; i++) {\r\n            if (strcmp(auctions[i].auction_name, auctionName)) {\r\n                if(auctions[i].id_winner >= 0){\r\n                    return auctions[i].offers[uint(auctions[i].id_winner)].offerent_addr;\r\n                }\r\n                else \r\n                {\r\n                    revert(\"This auction has no winner\");\r\n                }\r\n            }\r\n        }\r\n        revert(\"There is no auction with this name\");\r\n    }\r\n\r\n    function memcmp(bytes memory a, bytes memory b) internal pure returns(bool) {\r\n        return (a.length == b.length) && (keccak256(a) == keccak256(b));\r\n    }\r\n\r\n    function strcmp(string memory a, string memory b) internal pure returns(bool) {\r\n        return memcmp(bytes(a), bytes(b));\r\n    }\r\n}",
  "sourcePath": "/home/Marek/Studies/Inzynierka/fds-frontend/contracts/Auctions.sol",
  "compiler": {
    "name": "solc",
    "version": "0.5.16+commit.9c3226ce.Emscripten.clang"
  },
  "schemaVersion": "3.4.10",
  "updatedAt": "2022-10-01T12:50:58.782Z",
  "devdoc": {
    "methods": {}
  },
  "userdoc": {
    "methods": {}
  }
}